:020000040000fa
:10000000f0ff0320695a00001f630000376f0000f3
:100010006b7200009b750000ff770000000000007d
:10002000000000000000000000000000775b0000fe
:10003000db70000000000000775b0000775b0000d1
:10004000775b0000775b0000775b0000775b000068
:10005000775b0000775b0000775b0000775b000058
:10006000775b0000775b0000775b0000775b000048
:10007000775b0000775b0000775b0000775b000038
:10008000775b0000775b0000775b0000775b000028
:10009000775b0000775b0000775b0000775b000018
:1000a000775b0000775b0000775b0000775b000008
:1000b000775b0000775b0000775b0000775b0000f8
:1000c000775b0000775b0000775b0000775b0000e8
:1000d000775b0000775b0000775b0000775b0000d8
:1000e000775b0000775b000000000000000000006c
:1000f00000000000775b0000775b0000775b00008a
:10010000775b0000775b0000775b0000775b0000a7
:10011000775b0000775b0000775b0000775b000097
:10012000775b0000775b00008123000081230000e3
:100130008123000081230000fd2c0000fd2c000025
:10014000fd2c0000fd2c0000796c0000796c000093
:10015000796c0000796c0000775b0000775b000031
:10016000775b0000775b0000775b0000775b000047
:10017000775b0000775b0000775b0000775b000037
:10018000718b0000818b0000918b0000a18b00001f
:10019000775b0000775b0000775b0000775b000017
:1001a000775b0000775b0000775b0000775b000007
:1001b000775b0000775b0000775b0000775b0000f7
:1001c000775b0000775b0000775b0000775b0000e7
:1001d000775b0000775b0000775b0000775b0000d7
:1001e000775b0000775b0000775b0000775b0000c7
:1001f000775b0000775b0000775b0000775b0000b7
:10020000775b0000775b0000775b0000775b0000a6
:10021000775b0000775b0000775b0000775b000096
:10022000775b0000775b0000775b0000775b000086
:10023000775b0000775b000000000000000000001a
:10024000775b0000775b0000775b0000775b000066
:10025000775b0000775b0000775b0000775b000056
:04026000775b0000c8
:020000040000fa
:10026400f8b500bff8bc08bc9e467047257800006e
:10027400f8b500bff8bc08bc9e4670470178000082
:020000040000fa
:080284004c1a0000010000000b
:020000040000fa
:10028c002de9f04391b0002800f074820446002957
:10029c0000f072820d4640220021684608f0f2fb05
:1002ac002988204608f012fa002800f054823a21de
:1002bc00204608f0f1fb074638b1021b40f6c31389
:1002cc009a42a8bf1a46561c07d16b46032210212e
:1002dc00012007f09bfe032448e2dff8e08232465f
:1002ec002146404608f06efd002308f806304146d2
:1002fc00b0b208f063f898f80030613b132b64d867
:10030c00dfe803f05f0a635f5f63636363636363e8
:10031c006363636363635f5fa74b00221a702821da
:10032c00a64808f0b9fb064688b12921a34808f075
:10033c00b3fb034600284cd0701c1b1a9bb2082b35
:10034c00c3d11022002108f0c5fb04f043f901379a
:10035c003a21384608f0a0fb804600283cd0a8eb98
:10036c0007035e1cb1d0dff854923246394648463a
:10037c0008f028fd002309f806302821484608f02b
:10038c008bfb814688b38d480146a9eb000008f031
:10039c0015f8894b1b78002b40f09880874b1b7805
:1003ac00613b152b00f28e80dfe803f0888c8c7794
:1003bc008c73808c8c8c8c848c8c8c8c8c8c8c8c9e
:1003cc008c287d4b30221a70a9e77b4bff221a70c8
:1003dc007be706f10803afe70a21384608f05cfb1f
:1003ec00804600283ff471afb9e73a21734808f012
:1003fc0053fb814600283ff468afc4e76e4b0122e3
:10040c001a7009f101092921484608f045fb0646f6
:10041c0000283ff45aaf6a4f40f6c4120021384608
:10042c0008f030fba6eb0902664b1a8092b24946e3
:10043c00384608f0c7fc604b1b78f02b4bd0614e54
:10044c005f49308807f04ef930805b4b1b78312bbd
:10045c0000f0368100f2cd81042b00f0048140f2d3
:10046c009c81062b00f01681c0f00781072b00f051
:10047c001b81082b40f0bb81534b1b68db69002ba5
:10048c0000f09b814e4a1078003018bf012098472d
:10049c0091e1494b02221a70b3e7484b5b78692b08
:1004ac00454b0cbf052203221a70aae7424b0422cb
:1004bc001a70a6e7404b06221a70a2e73e4b0722a1
:1004cc001a709ee73c4bff221a70fee6302b41d08f
:1004dc00f02b40f08b8008f101080a21404608f00f
:1004ec00dbfa00283ff4f1aeb0eb08063ff4edaeba
:1004fc00324f32464146384608f064fc0023bb5567
:10050c002821384608f0c8fa0646002800f0368143
:10051c003946c01b07f052ff3b78692b6ad0732b0e
:10052c0074d1254bf1221a7001362921304608f07e
:10053c00b3fa00283ff4c9ae831bdbb2022b7ff465
:10054c00c4ae10220021304608f0c4fac0b204f048
:10055c0041f874e7194b1b78693b0e2b42d8dfe846
:10056c0003f00c414141194141084139103d4141d1
:10057c003500114bf0221a70ade70f4b31221a7077
:10058c003fe70e4b5b78652b0b4b0cbf34223222b2
:10059c001a7036e7094b5b78722b05d0772b07d195
:1005ac00054b37221a702ce7034b38221a7028e7b8
:1005bc00014bff221a7088e695280020c409002000
:1005cc000000002086280020582800209b4b332256
:1005dc001a7016e7994b35221a7012e7974b362290
:1005ec001a700ee7954bff221a706ee6ff2b3ff444
:1005fc006cae06e73a21924808f04efa034628b151
:10060c005a78732a06d08f4b02221a708b4bff221a
:10061c001a7014e79a78702a07d0772af6d11b79ca
:10062c003bb1884b04221a70f0e7864b01221a70fa
:10063c00ece7844b03221a70e8e7834b1b685b687a
:10064c00002b00f0ba80814981489847b3e07e4b7b
:10065c001b689b68002b00f0b0807c4a7c497d486d
:10066c0000689847a7e0784b1b68db68002b00f00c
:10067c00a4807649764898479de0734b1b681b69ac
:10068c00002b00f09a80724a1078003018bf0120bd
:10069c00984790e06c4b1b685b69002b00f08d80d9
:1006ac006a496b48984786e0674b1b689b69002b2f
:1006bc0000f08380654a66496648006898477ae08e
:1006cc00614b1b681b6a002b77d0624a10689847f5
:1006dc0071e05d4b1b689b6a002b6ed05b4a5c49da
:1006ec005c480068984766e0574b1b68db6a002b38
:1006fc0063d0564a56495748006898475be0524bbe
:10070c001b681b6b002b58d0504a5149514800684c
:10071c00984750e04c4b1b685b6b002b4dd04b4a01
:10072c004b494c480068984745e0474b1b689b6b0e
:10073c00002b42d0454a46494648006898473ae063
:10074c00414b1b68db6b002b37d0404a404941487a
:10075c00006898472fe021463f4807f053fe6b4650
:10076c0003221021012007f051fc0324204611b074
:10077c00bde8f083e224f9e7e224f7e73a213048b8
:10078c0008f08af900283ff4a0ad2d4b1b78692b9b
:10079c0064d0732b3ff4c5ae38e7022b3ff44daf5a
:1007ac003ff655af012b20d1274b1b681b6823b19b
:1007bc00264927489847042808d10021234b198043
:1007cc0040f6c412224808f05df904201b4b1b783c
:1007dc00013b022b1bd82a46214604f00dfc044693
:1007ec00002cc3d107f080ffc0e70020eee700200b
:1007fc00ece7352b3ff478af0fd9372b95d089d355
:10080c00382b9dd0f12b16d10020104b18802a4686
:10081c00214604f0f1fb0446e2e7332b3ff459afd9
:10082c003ff66daf084b1b685b6a002bc5d0094abd
:10083c0010689847bfe70020c8e700bf9528002044
:10084c00c409002092280020582800208628002067
:10085c00000000205c280020788800003a21024823
:0c086c0008f01af90346cbe6c40900208e
:020000040000fa
:100878004378002b00f0b282c36b002b00f0ae82ed
:100888002de9f04182b0846aa38b13f4007f06d06f
:10089800238b13f4007f1cbf4ff40073a383a38b37
:1008a80013f4807f06d0238b13f4807f1cbf4ff492
:1008b8008073a383a38b13f0800f05d0238b13f0d1
:1008c800800f1cbf8023a383a38b13f0400f05d098
:1008d800238b13f0400f1cbf4023a383a38b13f07b
:1008e800200f05d0238b13f0200f1cbf2023a383d8
:1008f8000546a38b13f0010f0ed0238b13f0010fc5
:100908000ad00123a383a3821023a3832383c36b69
:1009180000220421806b9847a38b13f0100f0ed090
:10092800238b13f0100f0ad01023a383a382012373
:10093800a3832383eb6b00220321a86b9847a38b27
:1009480013f0040f0ad0238b13f0040f06d00423ee
:10095800a383eb6b00220721a86b9847a38b13f0a6
:10096800080f03d0238b13f0080f31d194f8073107
:1009780013f0100f55d094f8093113f0100f50d020
:10098800ab6cda7922f00202da71da7b22f0020229
:10099800da73186800283ed0296d02680e68496825
:1009a80016605160102284f80721402284f804213f
:1009b8000268d18831bb072285f8252002220272fd
:1009c8000822426082691a60c36853b3984728e0d6
:1009d800002185f82510237bc3f38103a24ad35c49
:1009e80085f83430402205f1500008f04df8eb6be3
:1009f8001bb100220221a86b98478023a372082309
:100a0800a383b3e792f90020002ab4bf062202228a
:100a180085f82520d2e7012385f82530102384f8ae
:100a2800083194f8073113f0020f30d094f80931e7
:100a380013f0020f2bd0ab6c9e6846b395f82520b7
:100a4800082a16d0316a00296ad1326912f0800f5b
:100a580054d022f0800232616b6e23f47f5323f06e
:100a68003f036b66022384f80731802384f805313d
:100a78000de0002285f825203272b1699960726014
:100a8800f3680bb130469847022384f8073194f88d
:100a9800073113f0010f00f09e8094f8093113f02c
:100aa800010f00f09880d5f8488095f82530052b7f
:100ab80057d0d8f80060002e6fd06f6dc7f30d07c0
:100ac800336a7268f918914284bfd71abfb2296d88
:100ad80030683a46184407f033fe336a3b443362c1
:100ae8007268934260d2b8f80410b9425cd84023c7
:100af80084f80431012384f807316ce0052285f875
:100b0800252000223272b2699a60f3680bb1304630
:100b18009847022384f80731402384f80431b6e764
:100b28009f89b94298bf8fb2286e7368591a336883
:100b38003a46194407f004fe336adb1b33626b6ed6
:100b480023f47f5323f03f036b666b6ec7f30d07e7
:100b58001f436f66022384f80731802384f8053128
:100b680095e7d8f8000088b10023037285f825308e
:100b7800012284f80721402284f804218269c8f8f8
:100b880000204360c36833b3984724e0042385f802
:100b98002530012384f808311de0032385f825302a
:100ba800012384f8083116e093422cbf0023012367
:100bb8003372072385f82530012384f80731402351
:100bc80084f80431b369c8f80030336a7360f36895
:100bd8000bb130469847238c13f0020f00f09e802b
:100be80094f82931dbb2019394f82731dbb20093f2
:100bf800019a009b13f0080f10d012f0080f0dd0c7
:100c080095f88a3013f0020f08d095f88a3003f06f
:100c1800fd0385f88a30082384f82731019a009b60
:100c280013f0020f7ad012f0020f77d0ee6cb06892
:100c3800002873d0026a002a4bd1036913f0800f91
:100c480014d023f080030361d5f8843023f47f5354
:100c580023f03f03c5f884300a2384f82731802322
:100c680084f825315ae000bf788f00000023037212
:100c78008369b360c36803b19847b2681ab3106a4e
:100c8800b389984298bf83b25168081a1168014421
:100c9800c5f88010116ac91a1162d5f8842022f4a7
:100ca8007f5222f03f02c5f88420d5f88420c3f390
:100cb8000d031343c5f884300a2384f827318023b1
:100cc80084f825312ae00a2384f8283184f827316a
:100cd80024e0b3899a4298bf93b241688a1a01689e
:100ce8001144c5f88010026ad21a0262d5f884202d
:100cf80022f47f5222f03f02c5f88420d5f88420e0
:100d0800c3f30d031343c5f884300a2384f827314d
:100d1800022384f82931802384f82531238c13f0a9
:100d2800020f4fd094f82931dbb2019394f82731a0
:100d3800dbb20093009b13f0040f0dd095f87a30c6
:100d480013f0020f05d095f87a3003f0fd0385f80b
:100d58007a30042384f82731019a009b13f0010f9d
:100d680030d012f0010f2dd0ee6c306850b36a6f9e
:100d7800c2f30d02036a1344036241688b420cd22a
:100d8800b188914221d8026813442b67052384f85f
:100d98002731402384f8243114e000230372836947
:100da8003360036a4360c36803b1984733687bb113
:100db8001b682b67052384f8273184f829314023e1
:100dc80084f8243102b0bde8f08101230372e6e71c
:100dd800052384f8283184f82731f3e7704700bfea
:020000040000fa
:100de800431e13f1030f00f2a7812de9f04f85b0e0
:100df80001f00f0a4fb292f90830022b00f39f81dd
:100e080011f00e0f40f09e81d0f828b00af11203bd
:100e180050f823903e1106f0080676b209eb060852
:100e280098f8073013f0010f00f08f81154604463b
:100e38005268b8f80410b2fbf1f301fb132373b145
:100e4800002f80f28581e378002b40f08681a37c17
:100e5800012b1cd06ff07e0005b0bde8f08f002f8d
:100e68000bdbc278002af2d00022aa610321297282
:100e7800039202920192009278e12b6913f0010f1c
:100e8800e1d0002adfd043f080032b61dbe74ff08d
:100e98000003a374b4f90a0006f09efb0090b4f9ad
:100ea8000c0006f099fb0190b4f90e0006f094fbd3
:100eb8000290b4f9100006f08ffb03900023ab6199
:100ec80003232b72002fa8bf002380f24f814ce12f
:100ed80093f90030002bb4bf0623022384f8253091
:100ee80076e1676dc7f30d072b6a6a68f9189142b6
:100ef80084bfd21a97b2216d28683a46184407f081
:100f08001ffc2b6a3b442b626a68934218d3002368
:100f18002b72082384f8253001238bf807318bf8ce
:100f2800093140238bf804312b6a6b60ab6949f8af
:100f38000630eb68002b00f0bc8028469847b8e0e4
:100f4800b8f80430bb4217d901232b72082284f861
:100f580025208bf807318bf8093140238bf80431b1
:100f68002b6a6b60ab6949f80630eb68002b00f020
:100f7800a080284698479ce001238bf807318bf81e
:100f8800093140238bf8043193e0002384f825309d
:100f98002b7201238bf807318bf8093140238bf82a
:100fa8000431ab6949f80630eb68002b00f081800a
:100fb800284698477de094f82530062b13d0072b58
:100fc80077d1082384f82530636e23f47f5323f008
:100fd8003f03636602238bf807318bf809318023be
:100fe8008bf8053165e02b6ab8f80460b34238bf66
:100ff8009eb2ceb92b6a9b1b2b62092384f825303d
:10100800636e23f47f5323f03f036366626ec6f377
:101018000d031343636602238bf807318bf80931fc
:1010280080238bf8053144e0206e3246296807f0aa
:1010380087fbdfe7002f0fdb29684fea4a13e21826
:1010480011650beb4a1a05228af807218af809214b
:1010580040238af804312ce0286ab8f80430984212
:1010680098bf83b26a68101a2a6810444fea4a1275
:10107800a1180866286ac01a2862486e20f47f50b2
:1010880020f03f004866486ec3f30d0303434b66e8
:101098000beb02030a2283f8072183f80921802237
:1010a80083f8052105e01a469369002bfbd1956169
:1010b800ea61e378002b4ed1009b63b1b4f90a30a2
:1010c800002b08db590903f01f03012202fa03f37e
:1010d800454a42f82130019b63b1b4f90c30002b2a
:1010e80008db590903f01f03012202fa03f33e4a01
:1010f80042f82130029b63b1b4f90e30002b08dbb3
:10110800590903f01f03012202fa03f3364a42f891
:101118002130039b63b1b4f91030002b08db590967
:1011280003f01f03012202fa03f32f4a42f8213089
:101138000123a37400208fe66ff07c0070476ff0e6
:101148007a0089e66ff07b0086e66ff0750083e62b
:101158006ff07c0080e600207ee60023ab6103226e
:101168002a7203930293019300936b682b6259f8d8
:101178000620002a98d104232b720023eb6149f83a
:101188000650baf1000f7ff455af9f42fff613af38
:1011980094f82530032b3ff4a4ae042b3ff4f5aeae
:1011a800012b86d1226d2b681168526819605a602c
:1011b80040238bf8043110238bf807318bf8093161
:1011c8002b689a79002a7ff483ae072384f82530a8
:1011d800ab6949f8063002232b72eb68002b3ff409
:0c11e80068af2846984764e700e100e08b
:020000040000fa
:1011f4002de9f04f242985b006460f46144601d840
:10120400012903d1b64b16221a6050e0f36bf26c3d
:10121400934220d25a1cf26318782028f6d0a0f109
:101224000903042bf2d92b2801d02d281bd1f36bf1
:10123400f26c2d284ff0ff3a18bf4ff0000a93428a
:101244000dd25a1cf2631878f26c7fb1102f4ed174
:1012540030280dd04be0304605f014fedde7304673
:1012640005f010fef0e74ff0000aede730283dd11d
:10127400f36b934222d25a1cf263187840f0200395
:10128400782b2ad1f36bf26c93421bd25a1cf26373
:101294001878944b03445b780f2b40f2c180f36cb5
:1012a400002b00f09581f36b84b1023bf3630024bf
:1012b40000252046294605b0bde8f08f304605f0ec
:1012c400e1fddbe7304605f0ddfde2e7013bf363da
:1012d4000021304607f03afbe9e7002f00f0eb80ed
:1012e4000a2f40f09e8000247f4d1ae00a277d4b90
:1012f40003445b78bb42f3d312b1f36b013bf3635a
:101304000021304607f022fb7ce70a2303fb040498
:10131400f26bf36c9a42a4f130046bd2531cf36366
:101324001078a0f13003092b01d8ac42edd9002587
:10133400a0f1300109293dd86c4b4ff09932ab42f2
:1013440008bfa24217d34fea850ca3001b194cea2d
:10135400947245eb020213eb03086fea0103009356
:101364004ff0ff33019342eb0209dde900234b45c3
:1013740008bf424542d25b4b184498464278ba4271
:1013840018d2f36bf26c934280f00a815a1cf26318
:10139400187840444378bb42f3d3514b0e99222230
:1013a4001a60dde90e45002301f00102134318bf62
:1013b4004ff0000af36c13b1f36b013bf363dde907
:1013c4000e239d4208bf9442c0f0fa800e99002378
:1013d40001f00102134340f0e780baf1000f40f03e
:1013e400e3803f4b22221a600f9b11f1ff3443f13b
:1013f400ff355ee7304605f045fd92e718eb010442
:101404004ff0000349eb0305f26bf36c9a4203d2ed
:10141400531cf36310788be7304605f033fd87e700
:1014240010277c1e3c402f4d40f0b48017237b4393
:10143400c3f342132b4493f801b12b185b789f42fa
:1014440002d9b4f1006f38d34ff0ff33cbf1200150
:10145400abf1200223fa0bf803fa01f148ea010880
:1014640023fa02f2002548ea020823fa0bf91d4b7d
:10147400034459788f427ff67eafa94508bfa04543
:10148400fff479afabf1200004fa00f005fa0bf297
:10149400cbf12003024324fa03f342ea0305f26b7f
:1014a400f36c04fa0bf09a4241ea000414d2531c80
:1014b400f3631078dbe70827b3e704fa0bf41c4363
:1014c400f26bf36c9a4203d2531cf3631078b4e7c3
:1014d400304605f0d7fcb0e7304605f0d3fcc6e74c
:1014e4007c280020f43e000098999919999999193b
:1014f40004fb0734f26bf36c9a4247d2531cf36338
:1015040010782b185b789f4202d9334a9442efd962
:101514000025324b034459788f427ff62caf4ff0ad
:1015240000084ff0000965b1a4fb07234ff0000c3d
:101534001a466346e5fb07231bb14ff001084ff041
:10154400000958ea09037ff416af5ffa81f86feadd
:10155400080102914ff0ff310391dde902bca7fbc2
:10156400042307fb05339c4508bf93454ff000094e
:10157400fff401af12eb080443eb0905f26bf36cc3
:101584009a4209d2531cf3631078c2e7304605f03f
:1015940079fcb6e70024b4e7304605f073fcb8e7fd
:1015a400304605f06ffcf4e6dde90e23ab4208bfdc
:1015b400a24205d20a4b22221a60dde90e4578e6e2
:1015c400baf1ff3f7ff475ae644265eb450570e602
:1015d400002c7ff46cae7be6c6711c07f43e000061
:0415e4007c2800203f
:020000040000fa
:1015e800142800201c00000000000000b025002086
:1015f8008000000000000000d42700202000000028
:1016080000000000642900205000000001000000d4
:1016180015830000198b0000b18b0000618b00005e
:10162800618c0000078b0000f1820000e93d00009a
:10163800892b0000b12100000d2a00003d25000083
:101648001d7e000059820000e90d000031370000be
:10165800d9340000f58a0000ff3f000000000000b8
:101668005421002014010000000000003027002051
:101678002c000000000000008c2800200100000061
:10168800000000005c2700202c0000000000000083
:101698005c2300200001000000000000302600202c
:1016a800400000000000000068220020f400000054
:1016b800000000008d28002001000000000000004c
:1016c8006825002048000000000000008428002051
:1016d8000200000000000000882700202800000009
:1016e800000000003c280020080000000000000066
:1016f8005428002004000000000000008e2800206c
:101708000100000000000000e8290020100000008f
:1017180001000000000000000200000007000000b7
:10172800400000008f280020020000000000000098
:10173800702600204000000000000000582800200b
:10174800040000000000000000000020c4090000a0
:1017580000000000862800200200000000000000b1
:10176800c4090020c4090000000000005c28002013
:101778000400000000000000912800200200000082
:101788000000000095280020010000000100000072
:10179800ff000000d4290020140000000100000010
:1017a800a4830000b0830000b8830000c083000059
:1017b800c08300001c2500204c0000000000000031
:1017c8005c2400207000000000000000b02700200a
:1017d8002400000000000000442800200800000049
:1017e80000000000602800200c000000000000003d
:1017f80088130020c4090000000000008828002089
:1018080002000000000000009328002002000000f1
:10181800000000008a2800200200000000000000ec
:10182800f427002020000000000000006c280020a1
:101838000400000000000000b02600208000000026
:1018480000000000702800200c00000000000000cc
:10185800f829002004000000010000000100000039
:101868007c2800200400000000000000cc24002098
:101878005000000000000000982800206c000000c4
:1018880001000000a4280020a0280020a42800208f
:101898000000000025000000541d00200004000086
:1018a8000000000000000000000000000000000030
:1018b8000000000000000000000000000000000020
:1018c800c98f0000000000000000000000000000b8
:1018d80000000000516a0000000000000000000045
:1018e80000000000000000000000000000000000f0
:1018f8004c1d00200804000000000000b42900204e
:1019080020000000010000000100000003000000aa
:1019180000000000000000000000000000000000bf
:10192800000000004c2800204c280020080000007f
:1019380000000000802800200400000000000000d3
:1019480004290020600000000100000001000000e0
:10195800030000000000000000000000000000007c
:101968000000000000000000696b0000000000009b
:1019780000000000000000006d8f0000d98f0000fb
:10198800000000000000000000000000000000004f
:10199800000000000000000000000000000000003f
:1019a80000000000000000000000000030280020b7
:1019b8000c00000000000000000000000000000013
:020000040000fa
:1019c8002de9f041aeb00646154605910027059968
:1019d8000b78002b00f0fa8000244ff0ff33cde99c
:1019e80009430eab0c9380230b940d930b5d0bb145
:1019f800252b26d134b12246304606f073f8059bd4
:101a080023440593059b1a78252a40f0d78003f1d3
:101a18000108cdf81480059803782b2b1ad025d807
:101a2800202b1bd0232b1dd02a2b27d005f08efd71
:101a38000b90059b1a78303a092a2ed80133059362
:101a4800f7e70134d2e7099b43f00103013009931a
:101a58000590e0e7099b43f00403f7e7099b43f08f
:101a68000803f3e7099b43f01003efe72d2bead0b7
:101a7800302bd9d1099b43f00203e7e72b681a1de5
:101a88001b682a600130002b05900b9305da099a30
:101a98005b4282f0010209920b93099bda0744bf6b
:101aa80023f002030993059b1a782e2a0dd10022f0
:101ab800581c0a9205905a782a2a25d10233059390
:101ac8002b681a1d1b682a600a9305a805f0ecff0d
:101ad800059b0390187807f0cdf86928039979d009
:101ae80032dc632800f0cb8019dc252800f0d9808f
:101af800612853d000234ff0ff32cdf814800993aa
:101b08000b930a920093d4e005f020fd0a90059b00
:101b18001a78303a092ad8d801330593f7e76428a8
:101b280058d06728e6dc2a4606a806f09dfa002861
:101b380000f0a180059b5a1c05921b7806aa09a9ea
:101b4800304607f03bfa38e0702873d015dc6e2871
:101b580000f08c806f28cdd12b46002206a803f018
:101b6800cbfc002800f08780059b06aa013309a951
:101b78003046059307f020fa1fe075283ad07828f8
:101b880048d07328b6d1802975d1059b2a680133be
:101b98000593131d2b60126800237de02a4606a8d2
:101ba80006f062fa002866d0059b5a1c05921b783d
:101bb80006aa09a9304607f001fa04443c44a742a2
:101bc8007add3e4b4f221a604ff0ff3738462eb071
:101bd800bde8f0812b46012206a803f08dfc002801
:101be80049d0059b06aa013309a93046059303f09d
:101bf8002dfde2e72b46002206a803f07dfc002815
:101c080039d0059b06aa013309a93046059307f088
:101c1800d3f9d2e72b46002206a803f06dfc50b397
:101c2800059b5a1c05921b7806aa09a9304601f0a3
:101c3800a1fec2e72b460022f02106a803f05cfcb7
:101c4800c8b1059b01330593dde9062313430bd186
:101c58001b4806f055fe099b009319490b9b024649
:101c6800304604f04bf8a8e77823dde72b463a190d
:101c780006a804f043f9059b013305939ee78029e4
:101c8800f9d1059b013305932b681a1d1b682a603f
:101c98008df8183006aa012309a9304605f0c4f8c2
:101ca8008be78029e7d1059b01330593099b0093b6
:101cb8000b9b04490122d3e7274688e67c280020ad
:081cc800408f0000468f000070
:020000040000fa
:101cd0002de9f04f099f154604468e461e46002bff
:101ce00040f0cc808a42b2fa82fc4cd9bcf1000fa1
:101cf0000bd0ccf1200801fa0cfe20fa08f802fa09
:101d00000cf548ea0e0e00fa0cf44fea15491ffada
:101d100085f8befbf9fa210c09fb1ae30afb08fb64
:101d200041ea03439b452ad9eb180af1ff3004d25c
:101d30009b4502d9aaf102002b44a3eb0b03a4b2ea
:101d4000b3fbf9f209fb123302fb08f844ea03443f
:101d5000a04516d92c1902f1ff3303d2a04501d9b1
:101d6000931e2c44a4eb080443ea004027b124fa54
:101d70000cf400233c607b603146bde8f08f504698
:101d8000dbe71346eee702b9ffdebcf1000f2ed110
:101d90008b1a01264fea154eaab2b3fbfef8210cae
:101da0000efb183308fb02f941ea0343994561d958
:101db000eb1808f1ff3004d2994502d9a8f10200ce
:101dc0002b44a3eb0903a4b2b3fbfef10efb1133ca
:101dd0004a4344ea0344a2424ed92c1901f1ff338d
:101de00003d2a24201d98b1e2c44a41abce7ccf129
:101df000200e02fa0cf521fa0ef901fa0cf320fa82
:101e00000efe4eea03034fea154800fa0cf4b9fb44
:101e1000f8f11ffa85fe08fb1192180c01fb0ef673
:101e200040ea0242964221d9aa1801f1ff3003d2ba
:101e3000964201d9881e2a44921b9bb2b2fbf8f944
:101e400008fb192209fb0efe43ea02439e450fd907
:101e5000eb1809f1ff3604d29e4502d9a9f102061a
:101e60002b44a3eb0e0346ea004693e70846e3e75c
:101e70004e46f6e74046a4e70b46b6e78b4206d946
:101e8000002f7ed00026c7e90001304674e7b3fa80
:101e900083fcbcf1000f0fd18b4201d3824209d8e1
:101ea000841a61eb030e0120002f6dd0c7e9004eac
:101eb000002661e76046f7e7ccf1200e03fa0cf349
:101ec00022fa0ef521fa0ef41d4301fa0cf320fa62
:101ed0000ef10b434fea154a00fa0cf6b4fbfaf97f
:101ee0001ffa85f80afb19401c0c09fb08f144eaab
:101ef0000044a14202fa0cf23fd92c1909f1ff303b
:101f000004d2a14202d9a9f102002c44641a9bb266
:101f1000b4fbfaf90afb194409fb08f843ea044147
:101f200088452cd9691809f1ff3304d2884502d9b4
:101f3000a9f10203294443ea0040a1eb0801a0fbf8
:101f400002894945c2464c4602d306d1464504d2d1
:101f5000b8eb020a69eb05040138afb1b6eb0a032e
:101f600061eb040606fa0efe23fa0cf34eea0303b5
:101f700026fa0cf6c7e900369ae74846c6e74b460c
:0c1f8000d9e73e463846f7e63e46f5e657
:020000040000fa
:101f8c0030b585b00e2916d000eb8003834a02ebe6
:101f9c00c3031b7d6bb900eb800302ebc303dd684d
:101fac003db100eb80027d4b03ebc2031b690022a9
:101fbc00a84705b030bd044600eb8003774901eb20
:101fcc00c30300211975137803f07f03012b18d07c
:101fdc00212b40f0d88000eb8003704901ebc30348
:101fec00dd68002d00f0cf805378013b0a2b00f206
:101ffc00c080dfe803f05c7280bebebebebe8aae9f
:10200c00a00053780a2b47d00b2b38d0062b09d0c5
:10201c0000eb8004614b03ebc4040121606805f004
:10202c00fbfac6e7d378212b09d0222b17d004eb6f
:10203c0084045a4b03ebc40401232375b9e700eb6a
:10204c008003564901ebc3039868d18802688a4221
:10205c0028bf0a46596a586805f0aafbe7e700eb67
:10206c0080034e4901ebc3039968d0880a68824209
:10207c0028bf02464968586805f09afbd7e7927862
:10208c00474b1a7000eb8004444b03ebc404002153
:10209c00606805f0c1fa8ce700eb80043f4b03eb62
:1020ac00c40401223e49606805f082fb81e7d378c5
:1020bc008df8083093788df809309379d27943ea0a
:1020cc000223adf80a3000eb8002344b03ebc20361
:1020dc001b6902aa0021a8476be793788df80f3093
:1020ec0000eb80022d4b03ebc2031b690df10f02b9
:1020fc000121a8475de700eb8002284b03ebc203ec
:10210c001b6900220221a84753e7d3788df80430cd
:10211c0093788df805309379d27943ea0223adf8a0
:10212c00063000eb80021d4b03ebc2031b6901aab6
:10213c000321a8473de753888df80e3000eb800251
:10214c00164b03ebc2031b690df10e020521a847c8
:10215c002fe7d3788df80c3093788df80d3000eb99
:10216c0080020e4b03ebc2031b6903aa0421a84790
:10217c001fe700eb8004094b03ebc40301215868f3
:10218c0005f04afa15e704eb8404044b03ebc40492
:10219c000121606805f040fa0be700bf882700209a
:0421ac008d2800205a
:020000040000fa
:1021b00011f00e0f02d0102940f0bc80b0f1ff3fab
:1021c00000f0bb802de9f8430d460446866ac378cb
:1021d000002b40f0b780837c012b03d06ff07e0092
:1021e000bde8f88300238374b0f90a0005f0f8f91c
:1021f0000746b4f90c0005f0f3f98046b4f90e0077
:1022000005f0eef98146b4f9100005f0e9f99de01a
:10221000102386f8083186f80731002586f800512a
:102220007f2386f8083186f80731a26cd17921f036
:102230000101d171d17b21f00101d17386f82051c8
:1022400086f8283186f82731e36cda7922f001022a
:10225000da71da7b22f00102da73e378002b6fd1b6
:1022600067b1b4f90a30002b08db590903f01f03ea
:10227000012202fa03f3414a42f82130b8f1000f7b
:102280000cd0b4f90c30002b08db590903f01f0304
:10229000012202fa03f3394a42f82130b9f1000f62
:1022a0000cd0b4f90e30002b08db590903f01f03e2
:1022b000012202fa03f3314a42f8213060b1b4f945
:1022c0001030002b08db590903f01f03012202fa2a
:1022d00003f32a4a42f821300123a37400207fe748
:1022e00069b2002918db06eb431696f8002102f0cc
:1022f000f80286f80021052286f8072186f80821d1
:10230000123354f82330091101f008011944cb7934
:1023100023f00103cb71a0e706eb431696f80021ea
:1023200002f08f0286f800210a2286f8072186f83b
:102330000821e5e76ff07b0070476ff07c00704785
:1023400000204de70020814680460746102d3ff4cf
:102350005faf15f00f03c3d17f2386f8083186f8ed
:102360000731002386f80031a36cda7922f00102ec
:10237000da71da7b22f00102da736ee700e100e045
:020000040000fa
:102380006c4b9b7d002b00f0d38010b56a4b9c6a90
:10239000684b5b8b13f0020f16d0674bff2283f85c
:1023a0002020022283f82120634b93f820305bb277
:1023b000b3f1ff3f00f08a805f4b93f820305bb2af
:1023c000062b00f09c8010bd5a4b5b8b13f0010f65
:1023d00007d0594bff2283f82020022283f82120c6
:1023e000e2e7544b5b8b13f0040f07d0524bff22f4
:1023f00083f82020012283f82120d5e74e4b93f863
:1024000020305bb2032b42d0042b10d0022bcbd157
:10241000494b1b692bb1484b9888002104f026ffdb
:10242000c2e7454b9888012104f020ffbce7424aef
:10243000936912699a420bd03f4a9268d15c3d4a37
:102440009162591cd369002bfcd13b4b9961abe7de
:10245000394b5b6973b1384b9b885b0043f00103d8
:10246000344a5362d369002bfcd1334b032283f8e7
:10247000202099e72f4a536843f440335360d369cf
:10248000002bfcd12c4b062283f820208ce72a4b12
:10249000d9695b69013b8b420bd0264ad369002b7b
:1024a000fcd1244b986a244bda6850540131d9612d
:1024b0007ae7204a536843f4e0235360d369002b42
:1024c000fcd11d4b062283f82020e6e71a4b0022a0
:1024d00083f82020174a536843f440335360d3698c
:1024e000002bfcd1134b83221a76134b5b6a002b13
:1024f0003ff469af104b5b6a2046984763e70e4b89
:10250000002283f8202083f821200a4b83221a76a8
:102510001a46538b03f03003102bfad1064b5b6a3b
:10252000002b3ff450af044b5b6a204698474ae7c4
:0c253000704700bf004001413027002030
:020000040000fa
:10253c0011f00e0f40f09e802de9f04f83b001f0aa
:10254c000f05b0f1ff3f00f098808b460446866a79
:10255c0005f1120350f82370c378002b40f09280e1
:10256c00837c012b04d06ff07e0003b0bde8f08fac
:10257c0000238374b0f90a0005f02cf80190b4f92b
:10258c000c0005f027f88146b4f90e0005f022f88e
:10259c008246b4f9100005f01df8804678e0f72368
:1025ac0086f804317f2386f80731fb7923f0020388
:1025bc00fb716ff00301384605f0a8fdfb7b23f09f
:1025cc000203fb736ff0030107f1080005f09efd99
:1025dc00e378002b54d1019b63b1b4f90a30002b82
:1025ec0008db590903f01f03012202fa03f3384aee
:1025fc0042f82130b9f1000f0cd0b4f90c30002b9b
:10260c0008db590903f01f03012202fa03f3304ad5
:10261c0042f82130baf1000f0cd0b4f90e30002b77
:10262c0008db590903f01f03012202fa03f3284abd
:10263c0042f82130b8f1000f0cd0b4f91030002b57
:10264c0008db590903f01f03012202fa03f3204aa5
:10265c0042f821300123a374002086e706eb4515d0
:10266c00202385f80431402385f80731022385f8af
:10267c000431ade76ff07b0070476ff07c0074e7be
:10268c00002072e74ff00008c246c146cdf8048026
:10269c00002d84d04ffa8bfb4fea2b1000f0080072
:1026ac003844c37923f00203c3716ff0030105f0c2
:1026bc002dfdbbf1000fd1db06eb4515102385f882
:1026cc000431202385f80731012385f804317fe795
:0426dc0000e100e039
:020000040000fa
:1026e0002de9f04f83b00190002a00f0b980002955
:1026f00000f0b98000920d469df8043043f00103cc
:1027000001935d4b4ff40072c3f89820962006f0b9
:1027100083f80227584c89e072b608264ff001086a
:102720004ff40079c4f89490404606f075f8c4f868
:102730009890404606f070f8c4f88490d4f8a03021
:10274000c4f88890c3f340232a7843ea42032b70ed
:102750000a2006f061f8013ee2d1c4f89490062008
:1027600006f05af8c4f89890032006f055f862b6bf
:1027700095f80090b9f1030f78d9b9f1ff0f6cd03b
:1027800009f1ff391ffa89f972b65f463a4c0ee03b
:10279000c4f89460062006f03ff8c4f8986003205f
:1027a00006f03af80137ffb2bbb2994529d94ff08c
:1027b000080a07f10108a8444ff40076c4f89460b1
:1027c000012006f029f8c4f89860012006f024f8ea
:1027d000c4f88460d4f8a030c4f88860c3f3402300
:1027e00098f8002043ea420388f800300a2006f0f7
:1027f00013f8baf1010adfd109f1ff339f42d1dab0
:10280000c6e762b61c4c4ff40076c4f89460012011
:1028100006f002f8c4f89860082005f0fdff2b7858
:10282000009a13800de0f0280bd1013f012101a88f
:1028300002f006fd834600283ff46eaf7b1c002ba0
:10284000f1dc0d4b4ff40072c3f89820962005f090
:10285000e3ff584603b0bde8f08f4ff0ed0bf0e713
:102860004ff0e20bf5e74ff0e20bf2e77b1c002b99
:0c287000dbdc4ff0f00be4e700800041df
:020000040000fa
:10287c0030b4624c247f002c40f0b980054604f043
:10288c00ff00002953d0002d51d04ff086446468ce
:10289c0004f00704012c68d05848056042600024fd
:1028ac0044618461046155488160002a63d0534ab5
:1028bc00d360524a012111774ff08642127e12f0fa
:1028cc00040f06d04ff08642916a117e11f0040f6e
:1028dc00fad14ff08642518b41f004015183117ea5
:1028ec0041f08001117645498a68c968914203d943
:1028fc004248c168891a01614ff08641496811f05c
:10290c00070f49d13d498969914238d23b4a116838
:10291c0008784ff086418862916901319161002bf2
:10292c0060d04ff0864304229a75012060e0002ba2
:10293c005ed0002a5cd04ff08644646804f0070433
:10294c00012c0cd02d480560426000244461846148
:10295c000461002da7d1294900208860a5e7002932
:10296c0048d113f0010fedd042e011f0010f3fd12f
:10297c00002be7d0f5e7214a0021d16099e71f4ae7
:10298c001269002acbd04ff08642ff2191621b497d
:10299c000a69013a0a61c2e7184a916849089160cc
:1029ac00116949081161d1684908d160916892692f
:1029bc008a4209d2114a116808884ff08641886210
:1029cc00916901319161aae70c4a1269002aa6d0db
:1029dc004ff086424ff6ff71916208490a69013a3d
:1029ec000a619ce701204ff08643987500e00020b7
:1029fc0030bc704711f0010fb3d0f9e75c27002011
:020000040000fa
:102a0c0011f00e0f4bd12de9f04f83b001f00f05f3
:102a1c00b0f1ff3f46d001910446d0f8288005f173
:102a2c00120350f82370c378002b40d1837c012b08
:102a3c0004d06ff07e0003b0bde8f08f00238374e8
:102a4c00b0f90a0004f0c6fd8146b4f90c0004f09c
:102a5c00c1fd8246b4f90e0004f0bcfd8346b4f906
:102a6c00100004f0b7fd064625e0202388f8053158
:102a7c00102388f805316ff00201384605f046fb4b
:102a8c00fb7943f00203fb716ff0020107f10800c0
:102a9c0005f03cfbfb7b43f00203fb7326e06ff07d
:102aac007b0070476ff07c00c5e70020c3e7002671
:102abc00b346b246b146002dd7d09df9041000297b
:102acc0005f1080508eb4518b4bf2023102388f83e
:102adc000530091101f008010f446ff0020138466e
:102aec0005f014fbfb7943f00203fb71e378002b38
:102afc00dbd1b9f1000f0cd0b4f90a30002b08db94
:102b0c00590903f01f03012202fa03f31a4a42f88f
:102b1c002130baf1000f0cd0b4f90c30002b08dbcb
:102b2c00590903f01f03012202fa03f3124a42f877
:102b3c002130bbf1000f0cd0b4f90e30002b08dba8
:102b4c00590903f01f03012202fa03f30a4a42f85f
:102b5c00213066b1b4f91030002b08db590903f0b1
:102b6c001f03012202fa03f3034a42f82130012326
:0c2b7c00a37400205fe700bf00e100e050
:020000040000fa
:102b88002de9f04111f00e0540f0a98001f00f0782
:102b9800a3f10804a4b2b4f57e7f00f2a380b0f1db
:102ba800ff3f00f0a280866a082b06d90824013569
:102bb800edb26400a4b2a342f9d807f1120450f8a8
:102bc8002440002a35d12260a380a271e17941f026
:102bd8000101e171a260a381a273e37b43f00103c9
:102be800e37386f80021112386f80031436d23f042
:102bf800e0434365436e23f0e0434366436d2d078e
:102c080005f0e0452b434365436e1d434566436924
:102c1800036583690366436d23f000434365436e90
:102c280023f000434366132386f809311046bde8b4
:102c3800f08149b24fea211c0cf0080c4ffa8cfcc9
:102c480004eb0c0e4ff0000844f80c80aef804308a
:102c58008ef806209ef8073043f001038ef80730ff
:102c6800414527db06eb471696f8003103f0f803d9
:102c780086f8003196f800311d4c14f812201343e1
:102c880086f80031402386f80531c90f01eb470764
:102c980000eb0710436d23f0e0434365426d2b07bb
:102ca80003f0e04313434365436d23f0004343655a
:102cb8000020bce706eb471696f8003103f08f03b7
:102cc80086f8003196f80031094c04eb420252783c
:102cd800134386f80031802386f80431d5e76ff076
:102ce8007b00a4e76ff07b00a1e76ff07c009ee714
:042cf800088e000042
:020000040000fa
:102cfc005a4b586a4ff086439b7d002b00f0ac80fa
:102d0c0070b54ff086414c6804f00704534b5a6978
:102d1c009d699e680b7e13f0040f5ed0896a4f4b41
:102d2c00db68934259d9002c47d14c4b5b689954c2
:102d3c0001324ff086431b7e13f0010f17d04ff07a
:102d4c00864301211975454b9b68ab425ed9434bb9
:102d5c001b68595d4ff08643996201353f4b1b69e7
:102d6c000bb9b5426dd03d4bdb6893426dd03b4bfc
:102d7c005a619d614ff086431b7e13f0020f14d0f5
:102d8c00374b1b78c3b1354bdb68934210d1334bb7
:102d9c0000221a774ff0864107240c7530490a70cf
:102dac001b6a4bb12d4b1b6a98472d4b1b781bb1e3
:102dbc004ff0864302229a7570bd284b5b6823f84e
:102dcc00121001324ff086431b7e13f0010fced050
:102ddc004ff08643012119750be04ff086431b7ea3
:102dec0013f0010fc3d04ff0864301211975002c4d
:102dfc00a9d01a4b9b68ab4215d9184b1b6833f8fa
:102e0c0015104ff0864399620135a7e7134b1b69e8
:102e1c00002ba3d04ff08643ff2199620f490b6919
:102e2c00013b0b619ae70d4b1b69002b96d04ff0c1
:102e3c0086434ff6ff71996208490b69013b0b61a0
:102e4c008ce7074b0121197091e74ff08643012164
:102e5c009975042119758ae7704700bf5c2700201b
:042e6c008c2800208e
:020000040000fa
:102e7000f0b583b000268df80760504f70223146c0
:102e8000384605f005fe032000f0a8f84c4d2b68ed
:102e90009847ab680df10701384698479df8074001
:102ea0008df80760022000f099f82b689847c4eb72
:102eb000c400ab680df1070107eb400098479df88f
:102ec00007301c44e4b28df80760012000f086f85a
:102ed0002b689847c4ebc400ab680df1070107eb02
:102ee000400098479df807301c44e4b28df8076015
:102ef000042000f073f82b689847c4ebc400ab685b
:102f00000df1070107eb400098479df807301c447e
:102f10008df8076014f0ff034bd03c46013bdbb259
:102f2000c3ebc30307f10e0505eb4305254e10e087
:102f3000607804f03fff0146637b022b9abf224a70
:102f400052f82320214a224805f062fa0e34ac429e
:102f50002fd02378013b032bf8d801a252f823f09d
:102f6000832f0000712f0000312f0000a12f0000df
:102f7000607804f01fffa2780146164805f048fa71
:102f8000e4e7607804f016ff0146637b022b9abfea
:102f90000d4a52f823200d4a0f4805f039fad5e7bb
:102fa000607804f007ffa2780146304605f030fa59
:102fb000cce7024b187803b0f0bd00bf5c240020c2
:102fc000b0270020a07a0000308c0000747a000046
:0c2fd000787a0000847a0000947a0000f7
:020000040000fa
:102fdc000138032857d8dfe800f02c0217412b4b9f
:102fec002b4a1a602b4a5a602b4a9a602b4ada6099
:102ffc002b4a5a612b4a1a612b4a1a622b4a9a6144
:10300c002b4ada6100207047204b2a4a1a602a4a60
:10301c005a602a4a9a602a4ada602a4a5a612a4a2b
:10302c001a612a4a1a622a4a9a612a4ada610020eb
:10303c007047164b284a1a60284a5a60284a9a60e8
:10304c00284ada60284a5a61284a1a61284a1a62c0
:10305c00284a9a61284ada61002070470b4b274aac
:10306c001a60274a5a60274a9a60274ada60274a28
:10307c005a61274a1a61274a1a62274a9a61274ad3
:10308c00da6100207047e220704700bfb0270020b3
:10309c003b7f0000678600009557000045670000e5
:1030ac0041780000817800000f860000997b0000b9
:1030bc00a13a0000118c0000db8900006b49000074
:1030cc0041620000f38d0000e98d0000296d0000c5
:1030dc00d17b000005430000d9840000b7870000b5
:1030ec00cb820000898f00008d8f0000918f000033
:1030fc00958f000051730000014000002d8a0000e4
:10310c00bf7900007d710000b16a0000298e0000bb
:10311c00d3850000f1850000396f0000e126000026
:020000040000fa
:10312c00f8b5484b1b78012b15d05ab212b1022bb3
:10313c0022d0f8bd0321002004f00cfd414b586057
:10314c00b0f1ff3ff5d000223f4905f01bf83d4b95
:10315c0001221a70ede73b4b1b7c002be9d039495f
:10316c000020487701238b7702230b7040238a6859
:10317c00183101f039fddce7324b1b7c1bb9314bac
:10318c0001221a70d5e72f4b5b7f002b4bd12d4bb7
:10319c009b7f002bcdd02d4b1b78002bc9d02c4ff7
:1031ac002c4b1b88402b28bf40233b60254c002513
:1031bc00a577402632462946e06805f063fc264b8d
:1031cc001b683a6825491944e06804f0adfa3346a7
:1031dc00e26804f11401284601f09afc0028a8d1f9
:1031ec0039681d4a13680b4413601a4a13885b1a1a
:1031fc009bb21380002b9cd1144b1d7040f6c41253
:10320c002946164805f03efc134b1d603d600d49e8
:10321c004d77134b0422da6133468a6818312846fd
:10322c0001f0e2fc85e70f4803f0eafa0e4b1b783d
:10323c00012b03d0034b00225a777ae7084b042268
:10324c00da61f7e7f4270020e16f000094280020f2
:10325c00702800208a2800206c2800208813002069
:0c326c0000800041b026002093280020c4
:020000040000fa
:10327800434b00221a7403f50063424a5a621a4605
:10328800536813f0080ffbd13f4b404a9a621a4625
:10329800536813f0100ffbd13b4b4222c3f8842034
:1032a8001a4600bfd2f8843013f0400ffad0384bda
:1032b80000229a6377225a631a46d36b13f0040fdd
:1032c800fbd1334b022283f830201a46d36b13f01c
:1032d800020ffbd12e4a136c03f00303032bfad120
:1032e8002c4b01225a711a46d37813f0010ffbd0e8
:1032f800254b294a1a621a46536813f0040ffbd16a
:10330800214b4122c3f8a8201a4600bfd2f8a830a2
:1033180013f0400ffad01c4b4122c3f8e0201a46a4
:10332800d2f8e03013f0400ffad0174b4122c3f81f
:1033380008211a46d2f8083113f0400ffad0124b80
:103348004122c3f80c211a46d2f80c3113f0400f71
:10335800fad00d4b4122c3f810211a46d2f8103189
:1033680013f0400ffad00b4b6ff07f421a6140f216
:10337800ff725a61094a9a6107221a62704700bfb0
:103388000014004006010100001c00400601300046
:1033980000100040000800400701010057840100a8
:020000040000fa
:1033a80090f90830002b40f39280f0b583b00446c2
:1033b8000d4616468b1e072b00f28580dfe803f0ca
:1033c80004616683836b787e43786ff3820343706e
:1033d800d0f8ec301b6c0021c0699847d4f8ec3069
:1033e8001b6c8021e0699847204603f09bfed4f8c7
:1033f800ec305b6a1021e0699847d4f8ec301f6a1a
:10340800402300228021e069b84794f99030022bcc
:1034180007dcd4f8ec309b6b04f188020021e069ea
:103428009847e378032262f30203e370d4f8ec30a0
:103438001b69e0699847237860f343032370e268c7
:1034480003f00e03022b15d09368c4f8b03013793b
:1034580084f8ae30002384f8ad3094f8dd30012bc9
:1034680033d1d4f8e03083b3d4f8e4203146284689
:1034780098472ae05369c4f8b030137c84f8ae301a
:10348800e8e743786ff382034370e6e7437843f055
:1034980004034370e1e743786ff382034370d0f885
:1034a800ec305b69c0699847adf8040001aed4e719
:1034b800c378012262f30203c370cee7c3786ff3c7
:1034c8000203c370c9e70029c7d103b0f0bd704734
:020000040000fa
:1034d80011f00e0f47d101f00f03b0f1ff3f45d0b7
:1034e8002de9f0470d460446123350f82360c3789f
:1034f800002b40d1837c012b03d06ff07e00bde808
:10350800f08700238374b0f90a0004f065f8824656
:10351800b4f90c0004f060f80746b4f90e0004f0a2
:103528005bf88046b4f9100004f056f8814645f37c
:10353800031101f008006ff00101304404f0e8fdc8
:10354800e378b3b9baf1000f24d0b4f90a30002bec
:1035580020db590903f01f03012202fa03f3264a6c
:1035680042f8213016e06ff07b0070476ff07c0066
:1035780070470020c3e741f3031101f008006ff022
:103588000101304404f0c4fde7780fb10020b6e72c
:10359800b946b84667b1b4f90c30002b08db5909b5
:1035a80003f01f03012202fa03f3134a42f8213001
:1035b800b8f1000f0cd0b4f90e30002b08db590914
:1035c80003f01f03012202fa03f30b4a42f82130e9
:1035d800b9f1000f0cd0b4f91030002b08db5909f1
:1035e80003f01f03012202fa03f3034a42f82130d1
:0c35f8000123a374002082e700e100e042
:020000040000fa
:10360400002840f08980474b1b78002b40f08780ce
:1036140030b583b0434b01229a741a7083f8242086
:103624004c689c62c87c587200205870d86318712a
:10363400b1f90a505d81b1f90c509d81b1f90e5078
:10364400dd81b1f910501d82d87022709a6a937886
:1036540013f0010ffbd10a23d370334b1b68019382
:10366400019b03f01f031f2b08bf05232d4a906afb
:10367400028d42ea83130385019bc3f344131f2b7a
:1036840008bf1d23274a926a108d03431385019bab
:10369400c3f38223072b08bf0323224a906a028db7
:1036a40042ea033303850b7a2bb11e4b9a6a1378d3
:1036b40043f0040313701b4b5b7a012b11d0194a9e
:1036c400916a0b7843f002030b70926a937813f0bb
:1036d400020ffbd1134b022283f82420002003b0f5
:1036e40030bd104b9a6a03f150005062002283f8f7
:1036f40040204a6a5a649a6a13899bb223f00c03e5
:10370400897c032908bf43f004039bb21381002181
:10371400044804f011fcd2e74ff0ff3070474ff03b
:0c372400ff30704754210020840080001a
:020000040000fa
:10373000b0f1ff3f28d051b32de9f84391f908309b
:10374000012b27dd0c460546c37843bb837c012b48
:1037500003d06ff07e00bde8f88300238374b0f9d6
:103760000a0003f03dff0746b5f90c0003f038ffef
:103770008046b5f90e0003f033ff8146b5f910001d
:1037800003f02eff06460ee06ff07c0070476ff0ee
:103790007c0070476ff07c00dde70020dbe700264f
:1037a000b146b0463746fe23237200236360e369c7
:1037b00063b1a2699a61a3690bb1e269da6100237e
:1037c000e361a361e3680bb120469847eb78002bd7
:1037d000e3d167b1b5f90a30002b08db590903f0d2
:1037e0001f03012202fa03f31a4a42f82130b8f10a
:1037f000000f0cd0b5f90c30002b08db590903f091
:103800001f03012202fa03f3124a42f82130b9f1f0
:10381000000f0cd0b5f90e30002b08db590903f06e
:103820001f03012202fa03f30a4a42f8213066b16b
:10383000b5f91030002b08db590903f01f030122f2
:1038400002fa03f3034a42f821300123ab7400204b
:0838500081e700bf00e100e088
:020000040000fa
:1038580070b582b004460d4649784b1e082b00f21d
:103868008280dfe803f05f80668005808080120038
:10387800037843f080030370ab7880f8ac30002104
:10388800204603f0cbfe02b070bd6b8823b9c27826
:1038980002f00702052a2dd094f8ad20dbb29a4237
:1038a80063d094f8ae208ab1d4f8b060331f013adf
:1038b800d2b206eb820600bf53f8042f5079a978dc
:1038c800884208bfc4f8b420b342f5d16b8884f8a5
:1038d800ad30204602f0e8fce378052262f30203eb
:1038e800e3706b888df8043094f8dd30012b0fd02d
:1038f8000021c5e70b2380f8b83003f013fc002142
:1039080084f8ad10e378042262f30203e370b7e7aa
:10391800d4f8e0305bb3d4f8e42001a90a20984732
:103928000021ade76b88012baad1002180f8c010d7
:10393800a6e76b88012b03d0022b05d001219fe756
:1039480080f8c03000219be7037803f00e03022bb8
:1039580001d0012194e76b798370437843f0010328
:10396800437000218ce701218ae7002188e70021c4
:0439780086e700bf1f
:020000040000fa
:10397c002de9f04f0e4649683568d6f80890f7687f
:10398c008bb0cde903230029acbf25f00205012142
:10399c0015f010030593039b8346d3e900232fd026
:1039ac0052ea03002cd0a9f10208346915f0080082
:1039bc0004f1ff3408904ff00000385518bf08f19f
:1039cc00ff388a46012c1ddc059b002b54d1089b2b
:1039dc0013b1013c20233b5532690095013a4b460b
:1039ec00121b3919584602f087f9dbf80430db0555
:1039fc0003d573689842b8bf18460bb0bde8f08f7a
:103a0c00c846d2e752ea030009d1baf1000f06dc2e
:103a1c00a8eb010050440028d6dda807d4d502f04d
:103a2c000f000928d4bf00f1300e00f1570e049896
:103a3c00a0f1410cbcf1190f04f1ff3410d84ef079
:103a4c00200cacf1610cbcf1190f09d8704609912e
:103a5c00cde9062305f013f9dde90623099986461d
:103a6c00100940ea03704fea131c07f804e00af14e
:103a7c00ff3a02466346a5e7039bd3e9000150eaef
:103a8c000103a4d03a19049b02f8013c023c3023f8
:043a9c003b559ce713
:020000040000fa
:103aa0002de9f04383b00123adf80630ff238df8f4
:103ab0000530002a75d01646002974d00d460746f9
:103ac000002313803d4b187805f0fef8a0b12b7849
:103ad0008df805306b78ac7804eb0324a4b20df1bb
:103ae00006020df10501384604f056f80346002899
:103af0005bd14ff0020803e04ff001084ff48064ff
:103b00009df80530102b16d0ff2b14d003f07f0347
:103b1000302b01d0012c3dd101222946384604f03a
:103b20000bfc03460124002b18bf44463480184682
:103b300003b0bde8f08342462946384604f0fcfb5a
:103b40000346b0bbb8f1010f0ed02b7895f8019069
:103b500009eb03291ffa89f94c4529d308f102031f
:103b60004b4504dbe62324e095f80090f4e7134b83
:103b7000187805f0a9f810b9b9f1fe0f1bd8a9eb18
:103b8000080292b205eb0801384604f0d5fb034663
:103b90004c46c8e722462946384604f0cdfb03468a
:103ba000c1e7e223c3e7e223c1e74ff0020800e0e8
:103bb000ed234446bae7e723fbe700bf9128002046
:020000040000fa
:103bc00000287cd02de9f04804460368002b78d00b
:103bd0003d4a002908bf1146b1eb031f09d2b1ebe2
:103be000c30f54d203eb43028a4253d80326042561
:103bf00001e010260025a6fb03bc4fea0c470a464d
:103c000000234fea0b4047ea1b4104f04ff9c0f58f
:103c100080302e4a136823f002031360d369002b0f
:103c2000fcd180b2294b98816368022b35d027499b
:103c30000b6823f0706323f4604343ea453343f099
:103c400080730b604a68a368e068034322f4015262
:103c500022f007021343626813434b601b4ad36987
:103c6000002bfcd1194a136843f002031360d36997
:103c7000002bfcd1154b5b6803f00703012b144ba1
:103c800014bf802240221a631a6101201ae008261c
:103c90000225b0e700263546ade70c4a136823f04d
:103ca000706323f4604343ea453313605168a368ab
:103cb000e068034321f047010b435360cee7002047
:103cc00070470020bde8f088006cdc02000400436f
:043cd000302600207a
:020000040000fa
:103cd400f0b585b004460f460578032d75d8dfe8a6
:103ce40005f002243f593a4e0fce20606160a26075
:103cf400e36003ce2061616133782376204604f0cb
:103d040001fe0a2302930123019302230093032358
:103d14000022304914fa80f004f03efd204604f0fd
:103d2400f1fd3880284605b0f0bd2b4b03cb206055
:103d340061601b782372204604f0e4fd0a23029399
:103d4400002501950423009301232a46214914faee
:103d540080f004f021fd204604f0d4fd3880e1e732
:103d64001e4b03cb206061601b782372204604f055
:103d7400c9fd0a23029300250195012300932a46d5
:103d8400144914fa80f004f007fd204604f0bafd4b
:103d94003880c7e7124b03cb206061601b78237225
:103da400204604f0affd0a23029300250195022367
:103db400009301232a46074914fa80f004f0ecfc2e
:103dc400204604f09ffd3880ace7e225aae700bf57
:103dd400986d0000806d0000b46d0000c06d00009f
:043de400cc6d0000a2
:020000040000fa
:103de800b0f1ff3f7fd02de9f84303780bb9bde868
:103df800f8830446856a1021fef7d6f9e378a3bb59
:103e0800a37c012bf3d10027a774b4f90a0003f0af
:103e1800e3fb8146b4f90c0003f0defb0646b4f977
:103e28000e0003f0d9fb8046b4f9100003f0d4fb70
:103e3800a77140f2fd33ab82af722b8943f00103c7
:103e48002b81e378002bd2d1b9f1000f1cd0b4f943
:103e58000a30bb4218db590903f01f03012202fa9a
:103e680003f3214a42f821300ee00023a37140f207
:103e7800fd32aa82ab722b8943f001032b81e678cd
:103e8800002eb4d13046b04666b1b4f90c30002be0
:103e980008db590903f01f03012202fa03f3124a4f
:103ea80042f82130b8f1000f0cd0b4f90e30002bd5
:103eb80008db590903f01f03012202fa03f30a4a37
:103ec80042f8213060b1b4f91030002b08db5909f1
:103ed80003f01f03012202fa03f3034a42f82130d8
:0c3ee8000123a37483e7704700e100e0b1
:020000040000fa
:103ef400ffffffffffffffffffffffffffffffffce
:103f0400ffffffffffffffffffffffffffffffffbd
:103f1400ffffffffffffffffffffffffffffffffad
:103f2400ff00010203040506070809ffffffffff66
:103f3400ffff0a0b0c0d0e0f101112131415161798
:103f440018191a1b1c1d1e1f20212223ffffffff0f
:103f5400ffff0a0b0c0d0e0f101112131415161778
:103f640018191a1b1c1d1e1f20212223ffffffffef
:103f7400ffffffffffffffffffffffffffffffff4d
:103f8400ffffffffffffffffffffffffffffffff3d
:103f9400ffffffffffffffffffffffffffffffff2d
:103fa400ffffffffffffffffffffffffffffffff1d
:103fb400ffffffffffffffffffffffffffffffff0d
:103fc400fffffffffffffffffffffffffffffffffd
:103fd400ffffffffffffffffffffffffffffffffed
:103fe400ffffffffffffffffffffffffffffffffdd
:0a3ff400ff000102040703060500a8
:020000040000fa
:023ffe0070470a
:020000040000fa
:10400000002a75d0f0b583b01646002973d000237e
:1040100013800b788df807304a788d7805eb0225f0
:10402000adb203f07f03302b19d0012d0cbf2f460a
:1040300002270c46314b4ff48042c3f894200121f3
:104040000df1070004f02efe58b9f0232b4a4ff46f
:104050008041c2f898103780184603b0f0bd0127a0
:10406000e7e70121264803f021fb03460028edd1b4
:104070009df8073003f0bf03902b06d03946204649
:1040800004f0a6fd80b9e623e0e72946204604f0c7
:104090009ffd10b92f46e623d8e72946184803f0bc
:1040a00005fb03462f46d1e73946154803f0fefad3
:1040b00003460028cad1012fc8d02378677807ebc0
:1040c0000327bfb2bd4211d3042f01d8e623bde7b9
:1040d000b91ea01c04f07cfd08b9e623b6e7b91ea2
:1040e00089b2074803f0e2fa0346afe7ed23ade7f4
:1040f000e22318467047e223aee700bf008000418c
:0441000040420f002a
:020000040000fa
:1041040000283cd00368384a002908bf1146b1eba7
:10411400430f36d3354a934235d807ee901af8ee5a
:10412400677a07ee103af8ee476a87eea67adfed73
:10413400306a67eea67af2ee046a77eea67a77ee34
:10414400677afceee77a17ee902a2a498b4206d862
:10415400b2f5ff7f19d8012a3dd9500816e0b2f50f
:10416400bf7f3ad2032a3bd950002349a1fb00c0a8
:104174004008a1fb0212520842ea002006e0002097
:1041840070470020704700207047ff2019498b4278
:1041940094bf00210121194a136823f0020313601c
:1041a400d369002bfcd1154ad060136823f0407307
:1041b40043ea01631360136843f002031360d36995
:1041c400002bfcd10d4b10225a831a46d369002bc5
:1041d400fcd1012070470120d8e74ff67f70d5e766
:1041e40040f20120d2e700bf006cdc0240420f0025
:1041f40095bfd633801a0600abaaaaaa0040014193
:020000040000fa
:10420400f0b583b00c461746087804f057fb002835
:104214006bd00546407840bbab786bb3344e0fcec1
:1042240020606160a260e3602b78022b38d0032bfe
:1042340040d0042b48d0012b50d12e4b5968204636
:1042440004f0a8fb204604f05dfb80b2ab780a22a0
:10425400009200222849204404f09efa204604f0eb
:1042640051fb3880002003b0f0bd03f0a1fd0146ee
:10427400204604f0a5fdd7e71e4b1968204604f03c
:104284009ffd204604f03efb0a221c4914fa80f0ec
:1042940004f082fa204604f035fb3880c520e2e7ba
:1042a400144b9968204604f075fb204604f02afb61
:1042b40080b2cbe70f4bd968204604f06bfb204655
:1042c40004f020fb80b2c1e70a4b1969204604f0d0
:1042d40061fb204604f016fb80b2b7e7054b196872
:1042e400204604f057fbc520bde7c520bbe700bf4f
:1042f40060830000d4290020708300005c830000e8
:020000040000fa
:104304002de9f04782b00e46924600238df807301f
:1043140013800b7013254ff088094ff05a085ee0a4
:10432400337823433370640014f0ff040dd08df808
:1043340007700df1070001f049ff30b99df807300f
:1043440083f07f03012beed8eae73378002b41d0ca
:10435400aaf80030013d6db2b5f1ff3f01d1eb2465
:104364002ee0002d30dd3378032b2fd9c82b2fd826
:10437400751c013bdbb201331e4400274ff00108da
:1043840018e02b7823432b70600010f0ff040ed04c
:104394008df807700df1070001f018ff30b99df892
:1043a400073083f07f03012beed8eae7044601359a
:1043b400b54202d02f704446eae75a2004f02afaa4
:1043c400204602b0bde8f087eb24f9e7e624f7e7de
:1043d400ed24f5e7013d6db2b5f1ff3fbfd004f028
:1043e4006bf9484603f000fe0446404604f012fa16
:0a43f400002cefd10124002799e707
:020000040000fa
:0243fe00704706
:020000040000fa
:10440000b0f1ff3f08d0384a4ff48a7303fb002312
:1044100093f92430022b00d0704710b54ff48a7303
:1044200003fb0023b3f90a30002b09db5a0903f020
:104430001f03012101fa03f360322c4941f82230b5
:10444000294a4ff48a7303fb0023b3f90c30002b85
:1044500009db5a0903f01f03012101fa03f360325b
:10446000224941f82230204a4ff48a7303fb00238b
:10447000b3f90e30002b09db5a0903f01f030121a9
:1044800001fa03f36032194941f82230164a4ff419
:104490008a7303fb0023b3f91030002b09db5a09a0
:1044a00003f01f03012101fa03f360320f4941f8c1
:1044b000223004460c4a4ff48a7303fb0023012286
:1044c000da705b7a934207d007484ff48a7303fb94
:1044d00004000023c37010bd034b4ff48a7000fb2f
:1044e0000430fcf7c9f9efe75421002000e100e0b7
:020000040000fa
:1044f00070b582b000238df807300e2901d002b0cc
:1045000070bd14460646354bf42505fb0035d388af
:10451000a5f8e830d5f8ec301b6c8021e8699847a5
:10452000237803f01f03032be9d8dfe803f002220e
:104530002851237813f060020cd113f0800f04d1be
:1045400021462846fff788f9d9e72146284600f09a
:104550009ff9d4e7402a06d0202ad0d1012128464d
:1045600003f060f8cbe722460e21284603f0cefc8c
:10457000c5e722462179284602f0c4febfe721792b
:1045800051b9237813f0600f1bd122469df8071014
:10459000284601f032fdb2e70df10702284603f08c
:1045a0002dfa0e4bf42202fb0636f37803f00703d4
:1045b000052b01d10028e4d10121284603f032f86f
:1045c0009de722469df80710284602f09bfe96e7dd
:1045d00022460e21284603f099fc90e7682200202d
:020000040000fa
:1045e0002de9f0410646314b18600024304f05e0bc
:1045f0008578b5421ed00134082c3bd0e0b204f0df
:104600005ff93b78002bf3d08578b542f3d190f871
:104610000080434506d0032bedd1a8f10303dbb2a4
:10462000012be8d84378234a1370467b204a0021a7
:10463000117005e090f8008043781e4a1370467ba5
:10464000b8f1020f1dd0b8f1040f1ad008f0fd0226
:10465000012a11d1184603f0adfb0446304604f0a0
:1046600047f903462246144951f82810134803f02d
:10467000cffe15e04ff000081149124803f0c8fec4
:104680000ee0184603f096fb0446304604f030f97d
:104690002b462246084951f828100b4803f0b8fe73
:1046a000404604f019f9bde8f08100bf5c28002005
:1046b0009228002091280020d4290020547900005d
:0c46c00068790000787900004079000063
:020000040000fa
:1046cc0038b590f9083013f1020f3cd00546446917
:1046dc00022b07d04268002a3cd1002184f8c41078
:1046ec000f201ae094f8c4305bb1d4f8d83043b141
:1046fc00d4f8e050ab4227d000220c21b4f8d00003
:10470c009847012384f8c430264bc4f8d830238b47
:10471c00a4f8d03004f124010e20d4f8d830d4f809
:10472c00e050ab423ad00a460146b4f8d000984764
:10473c004023c4f88c30d4f8ec309b6b04f1880225
:10474c000021e069984738bdd4f8e42000210c2002
:10475c00a847d6e794f8c430ebb1d4f8c830d4f8f5
:10476c00cc108b4202d300210d20d6e7d4f8d40014
:10477c0004f12401184403f0e1ffd4f8c8006b687d
:10478c001844c4f8c800d4f8cc300021984234bf87
:10479c0001200d20c1e700210120bee7d4f8e42060
:0847ac00a847c5e7f144000035
:020000040000fa
:1047b4003449cb6823f4e0631b041b0c43f0bf6350
:1047c40043f40033cb60bff35f8f62b62e4be0221d
:1047d40083f83a234ff08060586083f83b234ff00e
:1047e4000060586083f83c234ff08050586083f891
:1047f4003d234ff00050586083f83e234ff0804033
:10480400586083f83f234ff00040586083f84023fa
:104814000120986083f841230220986083f84223a2
:104824000420986083f843230820986083f8442385
:104834001020986083f845232020986083f8502343
:104844004ff48030986083f851234ff4003098601f
:1048540083f852234ff48020986083f853234ff455
:1048640000229a604b6a03434b624b6943f0100386
:104874004b614b6a43f400334b624b6a43f480331d
:0c4884004b62704700ed00e000e100e036
:020000040000fa
:1048900030b583b004460d46002301934b78062bb8
:1048a00012d0082b50d0002b37d1a0f8bc300378a1
:1048b00003f0010390f8c02062f34103024602f8be
:1048c000bc3f0192022043e0c068cb78013b062b3d
:1048d00049d8dfe803f00410354848271d00237845
:1048e00003f00e03022b0cbfc36803680193122070
:1048f000019971bb11e08b7894f8ae209a420cd9e3
:10490000d4f8b02052f823303bb1019358881fe00f
:10491000237803f07003102b23d00121204602f0ee
:1049200081fe1ee0237803f07002102af5d103f017
:104930000e03022b0cbf036a436a01930a20d7e7d8
:1049400001aa01f01dfbd3e700f1ad0301930120a3
:104950000199ea88824228bf024692b2204602f0bc
:0a4960002dff03b030bd0020c2e7b8
:020000040000fa
:10496a00f0b5c3b007460e4604258df8045111234d
:10497a008df8053133238df8063143238df807313d
:10498a00fe2200210deb050004f07df800243470ae
:10499a00adf80250204604f027fa0a2003f043ff3c
:1049aa00204601f048fc1e2003f03dff0df10202f3
:1049ba000deb05012046fff7a0fc30b92a4641a9b4
:1049ca000deb050003f0adfe20b1002004f00cfa57
:1049da0043b0f0bd07238df8043030228df805204e
:1049ea0020468df806408df807408df808400322ce
:1049fa008df809205d228df80a20adf802300df1fc
:104a0a0002020deb050102f08af90028ddd10deb57
:104a1a00050003f0f4f80028d7d0ddf805307b60f4
:104a2a00bc700324384600f8044b01f053fe78703a
:0a4a3a007c73337801333370c7e753
:020000040000fa
:104a44002de9f84300295ed00f4600242f4e304b49
:104a540000f1010edff8bcc006e00cf801809a609a
:104a6400621c0134974244d9726802f00702012a99
:104a740018d09968dd684a1cd3f81080424528bfd5
:104a84000022954236d010f80480756805f00705b9
:104a9400012de2d14d000cf81180691c00250cf8a1
:104aa4000150dce7d3f80880d96808f101021d69d8
:104ab400aa4228bf002291421cd01ef8145010f8bc
:104ac400141041ea0521756805f00705012d05d08c
:104ad400c9b20cf808109a60621cc2e74fea480594
:104ae4005ffa81f90cf818900135090a0cf80510e1
:104af400f1e7144603f05efe10b1044b01229a75ef
:104b04002046bde8f8830c46f4e700bf00040043e8
:084b140030260020dc23002004
:020000040000fa
:104b1c00f8b50c464ff0ff312160002852d1064603
:104b2c002d49097811f0020f4fd02b498d68c869b7
:104b3c00a96888424cd229494978012903d06ff0e1
:104b4c005f052846f8bd254900204870244991f995
:104b5c00081001290bdd224991f92c10012905dde2
:104b6c001e4b01225a706ff07f05eae701261c49a3
:104b7c00f0008519ad004f197b604a51194bfb6051
:104b8c0000237b61276004f041f9134deb6901337d
:104b9c00eb6104f03ff93a46697d686803f044fc28
:104bac00054618b90d4b01225a70cae704f02ef9cc
:104bbc00094ad369013bd36104f02cf94ff0ff3360
:104bcc002360efe76ff07705bbe76ff07505b8e78b
:104bdc006ff07f05b5e700bf8827002084280020f0
:084bec00682500202163000090
:020000040000fa
:104bf400f8b50c464ff0ff312160002852d106462b
:104c04002d49097811f0040f4fd02b498d68086a9b
:104c1400e96888424cd229494978012903d06ff0c8
:104c24005f052846f8bd254900204870244991f9bc
:104c3400081001290bdd224991f92c10012905dd09
:104c44001e4b01225a706ff07f05eae701261c49ca
:104c5400f0008519ad004f197b601a4bfb604a5177
:104c640000237b6104f0d6f8134d2b6a01332b62c9
:104c740004f0d4f827603a46297e686803f0d8fb2c
:104c8400054618b90d4b01225a70cae704f0c2f860
:104c9400094a136a013b136204f0c0f84ff0ff3372
:104ca4002360efe76ff07705bbe76ff07505b8e7b2
:104cb4006ff07f05b5e700bf882700208428002017
:084cc400682500208d6300004b
:020000040000fa
:104ccc001a000000ac8f000016000000ec8c0000f5
:104cdc000e000000508e000006000000588e0000f0
:104cec0013000000608e00000b000000108d00000f
:104cfc0011000000808e000005000000888e00006e
:104d0c0002000000588d000004000000a08e00007e
:104d1c0000000000a88e000017000000b08f0000fb
:104d2c0012000000988e00000d000000b08e0000f4
:104d3c000a000000b48f00000c000000648d00001d
:104d4c0003000000c08e000009000000c88e0000a7
:104d5c0007000000d08e000018000000e08e00005c
:104d6c00010000007c8d000014000000888d000004
:104d7c0015000000948d000019000000b88f000091
:104d8c000f000000088f000010000000308f0000a2
:084d9c0008000000388f000040
:020000040000fa
:104da400002855d1002956d0c869002856d0f8b536
:104db4002c4b01241c7200221a83dd7862f3020555
:104dc400dd70d8608e8a1e828d695d61187891f8d5
:104dd400207067f3061083f8c020c0b2204362f34a
:104de400c7101870587803f12407c3f88870402757
:104df400c3f88c70c3f8984083f890201a4fc3f816
:104e04009470c3f89c30194f1f679b675c6700f070
:104e1400fe0062f38200587083f8dc208a6ac3f8cb
:104e2400ec20ca8ca3f8f02086b100241e4605e0cd
:104e340010350134e4b2338aa34207d9eb68002b5e
:104e4400f6d01b69002bf3d09847f1e70020f8bd9a
:104e54004ff0ff3070474ff0ff3070474ff0ff3096
:104e6400704700bf68220020cd460000796600002c
:020000040000fa
:104e74000a0d2d2d2043525950544f41555448206a
:104e840050524f20545255535420504c4154464f85
:104e9400524d202d2d0d0a2d2d20436f6d70696c00
:104ea40065643a204a756e20203420323032352031
:104eb40031373a31373a32312076312e302e3020a4
:104ec4002d2d0d0a2d2d20436f6e736f6c65206c94
:104ed4006f6720283131353230302d382d4e2d3149
:104ee40029202d2d0d0a0d004b69745061727365d4
:104ef400722056657273696f6e3a207625642e258a
:104f0400642e25640d0a00004465766963652044b7
:104f14006973636f766572792e2e2e2e2e00000033
:104f24000a25730d00000000436f6d706c65746595
:0c4f3400640000000a25730d0a0000bf95
:020000040000fa
:104f40002f4a4ff48a7303fb002393f92430002b7c
:104f500054dd4ff48a7303fb0023db6b002b4dd031
:104f600070b54ff48a7303fb00235d7a012d00d0e6
:104f700070bd04464ff48a7303fb00235b6cfbb1e6
:104f8000984706461e4a4ff48a7303fb042393f89e
:104f900040308342ecd001281bd0194a4ff48a7369
:104fa00003fb04231b790bbb4ff48a7505fb042517
:104fb000eb6b00220921a86b984701232b7115e0a8
:104fc0000f4a4ff48a7303fb002393f84030012b00
:104fd000ced00b4b4ff48a7606fb0436f36b0022df
:104fe0000821b06b9847002333712e46044b4ff4d1
:104ff0008a7000fb043080f84060b9e7704700bf5a
:045000005421002017
:020000040000fa
:10500400f0b583b00d46042849d004461646284b13
:105014001b78052b1bd00ed9062b10d0f12b21d1d8
:105024000a2302462349284603f0b6fb284603f028
:1050340069fc308039e0013bdbb2022b12d81e4bf5
:105044001a8832801d49284603f07cfb2de00a2390
:1050540002461849284603f09ffb284603f052fcf9
:10506400308022e0144b188890b1144f394600f078
:10507400c9fe114b18800a2300933b46224610496f
:10508400284603f089fb284603f03cfc30800ce002
:105094000a2322460749284603f07efbf3e70a2346
:1050a40004220449284603f077fb002003b0f0bd36
:1050b4009528002090880000862800200000002009
:0450c4009c880000c4
:020000040000fa
:1050c8002de9f04182b09df82430042b45d0052b02
:1050d80051d10a9bdb7803f00303032b4bd10c4619
:1050e80006460a9b9a7812f0800f1bd1234d4fea8f
:1050f800800808eb0007ff00e9190a760a9b9b88dd
:105108004b83009303230021204603f0c7f8eb5d8f
:1051180043f00403eb5508eb060005ebc00500233c
:105128002b6228e0154d4fea800808eb0007ff00c6
:10513800e9194a759b88cb820093032300212046f6
:1051480003f0acf8eb5d43f00203eb5508eb060007
:1051580005ebc0050023eb610de0084b85002c181a
:10516800e4001f191e5d46f001061e557960ba60fd
:105178000a9b09337b6202b0bde8f08188270020d2
:020000040000fa
:105188002de9f041294e2a4c4ff00108294f13e030
:10519800226afab1616a236a40469847a36a0133d2
:1051a800226b934228bf002314e0a26aedb2bd54db
:1051b800a36294f83430fbb9337e13f0040f32d075
:1051c800b56aa36a0133226b934228bf0023e26abf
:1051d8009a42ddd0e26a9a42eed0726802f0070283
:1051e800012ae2d1a16a4a00e8b207f811000132a7
:1051f800c5f30725bd54dbe703f0e6fa236a002b65
:10520800dad0616a94f83c3033b1a36b9842d3d3b7
:10521800236a00209847cfe7a36b9842ccd1236a32
:1052280000209847c8e7bde8f08100bf00040043ac
:08523800302600205c23002059
:020000040000fa
:10524000002851d02de9f04f83b0824672b600207d
:10525000002943d08b464ff00009dff894801de011
:10526000c8f89470012003f0d7fac8f898700120ac
:1052700003f0d2fac8f88470d8f8a030c8f8887063
:1052800013f4007f29d10a2003f0c6fa09f10109bd
:105290005ffa89f91ffa89f35b4523d20825802438
:1052a0001af80920114b1988adf800109b88adf849
:1052b000043014420cbf01ae6e464ff40077c8f8bc
:1052c0009470307803f0a8fac8f89870707803f0fa
:1052d000a3fa6408013de3d1c2e7f02062b603b04f
:1052e000bde8f08f0020f9e7e2207047308e000023
:0452f00000800041f9
:020000040000fa
:1052f40051000000ac8f000028000000f88c000072
:1053040024000000508e00001c000000048d0000ea
:1053140043000000808e000015000000908e000005
:1053240040000000988e000030000000a88e0000ad
:1053340056000000b08f000017000000b08e00007f
:1053440008000000b48f000016000000b88e0000b2
:1053540046000000708d00001b000000c88e000095
:1053640002000000d08e0000800000007c8d000050
:1053740077000000888d000041000000088f0000c5
:1053840047000000b88f000020000000b88d000026
:1053940045000000308f000012000000388f00002c
:020000040000fa
:1053a40007000000008f000008000000a08d00002e
:1053b40009000000488e00000a000000e08c000094
:1053c4000b000000688e00000c0000001c8d000023
:1053d4000d000000288d00000e000000348d000038
:1053e40010000000408d0000110000004c8d0000f2
:1053f4000f000000ac8d000012000000208f0000a0
:1054040013000000288f000014000000188f000013
:1054140015000000708e000016000000108f0000c0
:1054240017000000788e000018000000d88e0000dd
:1054340019000000e88e00001a000000f08e000041
:105444001b000000f88e000000000000208c00000b
:020000040000fa
:10545400f0b583b004460e4603f083fd002c45d01e
:10546400002e45d002460021204603f00ffb002306
:105474003380fdf7fbfc05461e4b03cb20606160c7
:10548400adb91d4b1968204603f084fa0a238df840
:10549400043000258df8055001a9204603f07afa5e
:1054a400204603f02ffa3080284603b0f0bd0020d8
:1054b40003f004fa0746407802f07afc014610b182
:1054c400204603f067fa0c4b53f82510204603f0ee
:1054d40061fa204603f016fa3b78022b04d0fb78dd
:1054e40014fa80f04370d1e7bb78f9e7e220dce7f7
:0c54f400e220dae7408e0000d4290020fe
:020000040000fa
:10550000882910b536d012dc812943d003dc8029ec
:1055100040d0002010bd82290ed08429f9d119680d
:1055200002b30a1d1a60b1f90020d3171ee0a029aa
:105530002bd00bdc9029ecd11968073121f0070141
:1055400001f108021a60d1e900230fe0c02901d05f
:10555000f029ded11a68111d196013680360002359
:10556000436005e00a1d1a600a880023c0e9002391
:105570000120cfe7196822b10a1d1a6091f90020b5
:10558000d3e70a1d1a600a78efe71a68111d19603f
:105590001268cae719681ab10a1d1a600a68c4e7d6
:0c55a0000c1d1c600b68c0e90032e1e744
:020000040000fa
:1055ac0070b582b0254d264c264e14e0f25c8df879
:1055bc000620013322699a4298bf0023e3606b688e
:1055cc0003f00703012b14bf9df80630bdf806301d
:1055dc00ab62237dbbb92b7e13f0010f2cd0a268dc
:1055ec00e3689a4225d06a6802f00702012addd1ed
:1055fc005a0016f813108df806100132b25c8df8b3
:10560c0007200133d6e703f0e3f92368002be2d03f
:10561c006168237f33b1a3699842dcd323680320ec
:10562c009847d8e7a3699842d5d1236803209847b7
:10563c00d1e7024b01221a7502b070bd0004004381
:08564c0030260020dc230020c1
:020000040000fa
:105654002de9f041d2e900230c4686b007465fea03
:10566400d37820684968a5680590e66841d052421d
:1056740063eb4303002908db20f002000590b8f136
:10568400000f02d1059948072ad5691e05a8029082
:105694000a20cde90010204600f0e9fcb8f1000f23
:1056a40002d1059b59071fd5b8f1000f00f1ff3057
:1056b40014bf2d232b2333542269059b0093013af5
:1056c4002b46121a3118384600f01afb7b68db05aa
:1056d40003d563689842b8bf184606b0bde8f081a8
:1056e4000807d2d42946d1e71a07e5d50138202383
:0856f400e1e70029c0dac5e777
:020000040000fa
:1056fc00f0b5adf20c4d05460e4617464ff48062e0
:10570c00002102a803f0bef90a238df80a30c22347
:10571c008df8113070238df812300b23adf8063054
:10572c000d23adf80430174b12221a700df106023e
:10573c0002a9284602f02afa044630b1114b002285
:10574c001a7020460df20c4df0bd052003f06af8de
:10575c0001aa02a9284601f08bfe04460028edd1cf
:10576c000b2102a802f006fb0028e7d0ddf80b2085
:10577c00ddf80f3032607360304602f0c3ff3870d2
:08578c00dce700bf91280020ba
:020000040000fa
:105794002de9f04383b006460f464ff00008adf8fc
:1057a400068081f80080404600f0caff1e2003f006
:1057b4003df8ff241ee006f1040806f101094a46fb
:1057c4004146284600f082fe4a4641462846fff7f5
:1057d40093ff013db570022333703b780133dbb294
:1057e4003b7096f80180082b19d00e360be0023c72
:1057f400012c14d0e5b20df106020021204602f07e
:10580400c9f90028d7d0b8f1000ff0d0a8f11503da
:10581400dbb2062bebd9204602f010f8e7e703b021
:04582400bde8f08368
:020000040000fa
:1058280038b51a4b1b681b780bb3194b1c68194900
:10583800204601f079f8d8b1174b01221a701748a1
:1058480000f080f8164c124d21682868faf71afd06
:10585800144800f077f82268134b5b6811882868b1
:105868009847226800231380084a1268137038bdcd
:105878000e49204601f058f80028ddd10c49204691
:1058880001f052f80028d7d1d9e700bf60280020de
:105898006428002080830000902800209083000066
:1058a800682800209c83000044280020848300008e
:0458b80088830000e1
:020000040000fa
:1058bc00b0f1ff3f41d0214af42303fb002393f9bd
:1058cc000830002b39dd70b50446f42303fb0023ac
:1058dc0093f8dc306bb1012b1fd1f42303fb0023b5
