:020000040000fa
:10000000f87f0020e97c00001b630000ab6c00005f
:1000100000000000000000000000000000000000e0
:1000200000000000000000000000000097550000e4
:1000300000000000000000009755000097550000e8
:100040009755000097550000975500009755000000
:10005000975500009755000097550000a9930000a0
:10006000975500005d210000892900004923000008
:10007000711f000000000000000000009755000004
:1000800097550000975500009755000097550000c0
:100090009755000000000000000000009755000088
:1000a00097550000975500009755000097550000a0
:020000040000fa
:1000b000f8b5c046f8bc08bc9e467047c97c000035
:1000c000f8b5c046f8bc08bc9e467047a17c00004d
:020000040000fa
:0800d000e04b000001000000fc
:020000040000fa
:1000d800f0b5d6464f464646c0b590b004000d0070
:1000e800002800d106e3002900d105e340220021c1
:1000f800684609f0bdf92988200008f043fe002869
:1001080000d1e4e23a21200009f0e4f8071e07d004
:10011800061bc74b9e4200dd1e000136002e07d18c
:100128006b4603221021012008f0bcfc0324dae20c
:10013800c04b984632002100180009f065fa0023e8
:10014800424693553004000c414608f05bfe434696
:100158001b78613bdab2132a53d89300b64ad358b6
:100168009f46b64b00221a702821b24809f0b2f80f
:10017800061e11d02921af4809f0acf8002844d058
:100188000136831b9bb2082bcad1102200213000f4
:1001980009f0ebf804f042fb7e1c3a21300009f02c
:1001a80099f88246002833d053469f1b0137002f09
:1001b800b6d0a04b98463a003100180009f024fa4e
:1001c80000234246d3552821404609f083f8071eec
:1001d80027d09849781a08f015fe984b1b78002b01
:1001e80000d099e0934b1b78613bdab2152a00d90d
:1001f8008ee09300924ad3589f46904b30221a7053
:10020800b2e78e4bff221a708ae730000830b7e752
:100218000a21300009f05ef88246002800d17fe705
:10022800c2e73a21834809f055f8071e00d177e75d
:10023800cfe7824b01221a7001372921380009f0d3
:1002480049f88146002800d16ae77e4e7e4a00219f
:10025800300009f00df94b46da1b7c4b1a8012046a
:10026800120c3900300009f0cff9744b1b78f02bd1
:1002780057d0764e3088734907f0e6fa30806f4bd6
:100288001b78312b00d17ee100d98be2042b00d101
:100298002ce100d842e2062b00d14ee100d237e132
:1002a800072b00d15be10020082b00d059e2684bf6
:1002b80019680b7f4a7f12021a438b7f1b041a436b
:1002c800cb7f1b06134300d142e25e4a1078421ee0
:1002d8009041c0b2984739e2584b02221a70abe7f6
:1002e800544b5b78692b03d0544b03221a70a3e755
:1002f800524b05221a709fe7504b04221a709be755
:100308004e4b06221a7097e74c4b07221a7093e758
:100318004a4bff221a7003e7302b44d0f02b00d051
:1003280081e0574601370a21380008f0d3ff00283a
:1003380000d1f5e6c61b00d1f2e63e4b98463200e6
:100348003900180009f060f9002342469355282126
:10035800404608f0bfff061e00d1cfe1354fc01b55
:10036800390008f04ffd3b78692b75d0732b00d00e
:100378007ee0324bf1221a7001362921300008f054
:10038800a9ff002800d1cbe6801bc0b2022800d00c
:10039800c6e610220021300008f0e7ffff231840ce
:1003a80004f03cfa65e7234b1b78693bdab20e2a66
:1003b80035d89300274ad3589f46204bf0221a700d
:1003c800afe71e4b31221a7036e71a4b5b78652b64
:1003d80003d01a4b32221a702ee7184b34221a70a7
:1003e8002ae7144b5b78722b05d0772b07d1134b78
:1003f80037221a7020e7114b38221a701ce70f4b6e
:10040800ff221a708ce60d4b33221a7014e70b4b3f
:1004180035221a7010e7094b36221a700ce7074b81
:10042800ff221a707ce6ff2b00d179e604e7c0466c
:10043800c3090000c4090020cc4b0000253400206b
:100448001c4c000000000020c409000016340020e5
:10045800e8330020744c00003a21c94808f03afffc
:10046800002805d04378732b06d0c64b02221a7099
:10047800c54bff221a70fce68378702b08d0772bc7
:10048800f6d10379002b07d0be4b04221a70efe790
:10049800bc4b01221a70ebe7ba4b03221a70e7e74c
:1004a800ba4b19680b794a7912021a438b791b04e3
:1004b8001a43cb791b06134300d149e1b449b54827
:1004c800984743e1b14b19680b7a4a7a12021a43ea
:1004d8008b7a1b041a43cb7a1b06134300d137e1ee
:1004e800ad4a1068aa4aab4998472fe1a74b19684b
:1004f8000b7b4a7b12021a438b7b1b041a43cb7b70
:100508001b06134300d123e1a149a24898471de1e6
:100518009e4b19680b7c4a7c12021a438b7c1b0485
:100528001a43cb7c1b06134300d111e1994a10787a
:10053800421e9041c0b2984708e1944b19680b7d60
:100548004a7d12021a438b7d1b041a43cb7d1b067e
:10055800134300d1fce08e498e489847f6e08b4b58
:1005680019680b7e4a7e12021a438b7e1b041a43bb
:10057800cb7e1b06134300d1eae0874a1068844a01
:1005880084499847e2e0814b19682023cb5c2122fb
:100598008a5c12021a432223cb5c1b041a432323ce
:1005a800cb5c1b06134300d1d2e07b4a1068984706
:1005b800cce0764b19682823cb5c29228a5c12028e
:1005c8001a432a23cb5c1b041a432b23cb5c1b0640
:1005d800134300d1bce0704a10686d4a6d499847d2
:1005e800b4e06a4b19682c23cb5c2d228a5c12027a
:1005f8001a432e23cb5c1b041a432f23cb5c1b0608
:10060800134300d1a4e0644a1068614a61499847dd
:100618009ce05e4b19683023cb5c31228a5c120265
:100628001a433223cb5c1b041a433323cb5c1b06cf
:10063800134300d18ce0584a1068554a55499847e9
:1006480084e0524b19683423cb5c35228a5c120251
:100658001a433623cb5c1b041a433723cb5c1b0697
:10066800134300d174e04c4a1068494a49499847f5
:100678006ce0464b19683823cb5c39228a5c12023d
:100688001a433a23cb5c1b041a433b23cb5c1b065f
:1006980013435dd0404a10683d4a3e49984755e0ab
:1006a8003a4b19683c23cb5c3d228a5c12021a4300
:1006b8003e23cb5c1b041a433f23cb5c1b0613432e
:1006c80046d0354a1068324a324998473ee03348a6
:1006d8002100583008f086fb6b46032210210120c8
:1006e80008f0e0f90324200010b01cbc904699469d
:1006f800a246f0bde224f6e7e224f4e73a212048d6
:1007080008f0e8fd002800d10ae51d4b1b78692b8d
:1007180000d17ae0732b00d12be6a9e6022b00d199
:10072800bee600d9cee60020012b1ad1174b196876
:100738000b784a7812021a438b781b041a43cb7839
:100748001b06134304d0124912489847042808d1bd
:100758000f4b00221a80124a00210e4808f088fe2a
:100768000420094b1b78013b022b2ed82a002100bc
:1007780004f04cfe0400002cb5d108f0edfbb2e704
:10078800c40900202234002025340020e83300204a
:100798001634002000000020ec3300202c5f0000fd
:1007a800c4090000352b00d11be714d9372b00d121
:1007b8005fe700d245e7382b00d171e70020f12b25
:1007c800cfd1144b00221a8000202a00210004f007
:1007d8001dfe0400cfe7332b00d1eae600d918e765
:1007e8000d4b19682423cb5c25228a5c12021a431c
:1007f8002623cb5c1b041a432723cb5c1b0613431d
:10080800a6d0064a10689847a0e73a21044808f09d
:1008180061fd27e616340020e8330020ec33002081
:04082800c4090020df
:020000040000fa
:10082c00f0b5c64600b582b005004378002b00d168
:10083c009ee2836b002b00d19ae2446aa38b9b054a
:10084c0005d5238b9b0502d580239b00a383a38b0b
:10085c00db0505d5238bdb0502d580235b00a38349
:10086c00a38b1b0604d5238b1b0601d58023a383e6
:10087c00a38b5b0604d5238b5b0601d54023a38396
:10088c00a38b9b0604d5238b9b0601d52023a38326
:10089c00a38bdb070dd5238bdb070ad50123a383a1
:1008ac00a3820f33a383238300220421686bab6bd9
:1008bc009847a38bdb060dd5238bdb060ad51023bb
:1008cc00a383a3820f3ba383238300220321686ba2
:1008dc00ab6b9847a38b5b0709d5238b5b0706d5be
:1008ec000423a38300220721686bab6b9847a38b6f
:1008fc001b0702d5238b1b0735d40823ff33e35c7e
:10090c00db065dd50a23ff33e35cdb0658d56e6c42
:10091c00f37902229343f371f37b9343f3733768b8
:10092c00002f47d0e96c0632386808f025fd082303
:10093c00ff331022e254033b3032e2543a6891798f
:10094c00d3791b020b432ad121330722ea54022309
:10095c003b7206337b60bb693360fb68002b2fd086
:10096c00380098472ce021230022ea54237b1b07f4
:10097c009b0fc14ad25c3023ea5428004c304022f1
:10098c00002108f073fdab6b002b03d00022022179
:10099c00686b98478023a372783ba383ade71378e9
:1009ac007f2b03d821230222ea54d0e721230622ed
:1009bc00ea54cce721230122ea54e7330f32e25404
:1009cc000823ff33e35c9b0737d50a23ff33e35c33
:1009dc009b0732d56b6c9e68002e2ed02122aa5c10
:1009ec00082a1ad0316a002971d1327c51b20029ff
:1009fc005ddb21220521a95400223272b2699a6072
:100a0c00f368002b01d0300098470823ff330222f3
:100a1c00e254033b3e32e2540fe0002221216a549f
:100a2c003272b16999607260f368002b01d03000aa
:100a3c0098470823ff330222e2540823ff33e35c78
:100a4c00db0700d4a3e00a23ff33e35cdb0700d40d
:100a5c009de06b6c98462123eb5c052b59d04346eb
:100a6c001e68002e74d02f6dbf04bf0c306a7368e3
:100a7c003a189a4201d91f1abfb2e96c33689c46e6
:100a8c0060443a0008f078fc336afb1833627268f1
:100a9c00934264d241468988b94260d882235b0074
:100aac004022e2540823ff333f3ae2546fe07f23a5
:100abc001a4032742b6e9b0b9b032b660823ff335f
:100acc000222e2540623ff337e32e254b5e79f89bb
:100adc00b94200d88fb2e86d7368591a33689c46d6
:100aec0061443a0008f048fc336adb1b33622b6e1e
:100afc009b0b9b032b662b6ebf04bf0c1f432f66f7
:100b0c000823ff330222e2540623ff337e32e254e1
:100b1c0093e743461868002813d000230372212260
:100b2c00ab540822ff320121a154033a3f31a154a6
:100b3c004246816911604360c368002b27d09847f7
:100b4c0025e021230422ea54e733033ae2541ee061
:100b5c0021230322ea54e733023ae25417e093428a
:100b6c009b415b42337221230722ea540823ff3353
:100b7c00063ae254033b3f32e2544346b2691a60f0
:100b8c00336a7360f368002b01d030009847238cd4
:100b9c009b0700d494e02a23ff33e35cdbb2019380
:100bac002823ff33e35cdbb20093009b1b070fd5bc
:100bbc00019b1b070cd58623eb5c9b0708d5862273
:100bcc00ab5c02218b43ab542823ff337e3ae254b7
:100bdc00009b9b0774d5019b9b0771d5ae6cb068cd
:100bec0000286dd0026a002a48d1037c5ab2002a30
:100bfc002adb002303728369b360c368002b00d027
:100c0c009847b268002a2fd0116ab389994200d84c
:100c1c008bb25068411a106884466144e967116ac6
:100c2c00c91a11628022a958890b8903a950a958a5
:100c3c009b049b0c0b43ab502823ff330a21e1543c
:100c4c002623ff33e2543be07f221340037401322e
:100c5c00ab589b0b9b03ab502823ff330a21e15469
:100c6c002623ff33e2542be00a232932ff32a3540c
:100c7c002822ff32a35423e0a0970000b3899a42a4
:100c8c0000d893b241688a1a01688c466244ea67bc
:100c9c00026ad21a02628022a958890b8903a950d0
:100cac00a9589b049b0c0b43ab502823ff330a2100
:100cbc00e1542a23ff330839e1542623ff33e2544d
:100ccc00238c9b0754d52a23ff33e35cdbb20193bf
:100cdc002823ff33e35cdbb20093009b5b070cd54e
:100cec007623eb5c9b0704d57622ab5c02218b430d
:100cfc00ab542823ff330422e254009bdb0737d587
:100d0c00019bdb0734d5ae6c3068002830d02b6fdc
:100d1c009b049b0c026a9a18026241688a420dd2ab
:100d2c00b188994228d803689a18ea662823ff33b9
:100d3c000522e254033b3b32e25419e000230372d8
:100d4c0083693360036a4360c368002b00d0984703
:100d5c003368002b13d01b68eb6605232822ff3267
:100d6c00a3542a22ff32a3542033ff33e93ae2542e
:100d7c0002b004bc9046f0bd01230372e0e70523ea
:100d8c0094225200a3542822ff32a354f0e7c04609
:020000040000fa
:100d9c00b43300201c00000000000000f82c0020e0
:100dac001001000000000000103100204000000085
:100dbc000000000050310020400000000000000046
:100dcc00743300202000000000000000f4340020e8
:100ddc0050000000010000009589000019930000ec
:100dec00b9930000a9940000b79400002b93000065
:100dfc002d8d00001d63000081260000fd2e0000db
:100e0c004d440000c5380000498500009d8b000052
:100e1c0039160000c5590000095b0000574000005e
:100e2c00934d000000000000d03200202c00000088
:100e3c00000000001c340020010000000000000035
:100e4c00fc3200202c000000000000005421002087
:100e5c0000040000000000005425002000040000e5
:100e6c000000000090310020400000000000000055
:100e7c00682b00209001000000000000f42e0020e0
:100e8c00c800000000000000d0310020400000002d
:100e9c0000000000082e0020ec0000000000000004
:100eac001d3400200100000000000000c8300020ac
:100ebc004800000000000000143400200200000074
:100ecc000000000028330020280000000000000073
:100edc00d03300200800000000000000542900203e
:100eec0004000000000000001e340020010000007f
:100efc000000000078350020100000000100000008
:100f0c0000000000020000000700000000000000cc
:100f1c001f340020010000000000000020340020dd
:100f2c000100000000000000103200204000000012
:100f3c0000000000e8330020040000000000000066
:100f4c0000000020c409000000000000163400203e
:100f5c000200000000000000c4090020c4090000c9
:100f6c0000000000ec330020040000000000000032
:100f7c002134002001000000000000002234002079
:100f8c0001000000000000002534002001000000da
:100f9c0001000000ff000000643500201400000078
:100fac00010000009c5f0000a85f0000b05f000023
:100fbc00b85f0000b85f00007c3000204c000000df
:100fcc0000000000bc2f002070000000000000009a
:100fdc00503300202400000000000000d833002013
:100fec000800000000000000f033002004000000a6
:100ffc0000000000f433002004000000000000009a
:10100c00f8330020040000000000000088130020ca
:10101c00c409000000000000183400200200000089
:10102c00000000002334002001000000000000003c
:10103c002434002001000000000000001a340020bd
:10104c00020000000000000094330020200000008b
:10105c0000000000fc330020040000000000000031
:10106c0050320020400000000000000090320020b0
:10107c0040000000000000000034002004000000cc
:10108c0000000000043400200400000000000000f8
:10109c002c300020500000000000000058290020d7
:1010ac001002000000000000283400206c0000003a
:1010bc00010000003434002030340020343400208f
:1010cc000000000025000000541d0020000400005a
:1010dc000000000000000000000000000000000004
:1010ec0000000000000000000000000000000000f4
:1010fc00e997000000000000000000000000000064
:10110c00000000003571000000000000000000002d
:10111c0000000000000000000000000000000000c3
:10112c004c1d002008040000000000004435002085
:10113c00200000000100000001000000030000007e
:10114c000000000000000000000000000000000093
:10115c0000000000e0330020e03300200800000015
:10116c000000000008340020040000000000000013
:10117c000c34002004000000000000009434002017
:10118c0060000000010000000100000003000000ee
:10119c000000000000000000000000000000000043
:1011ac00000000004d750000000000000000000071
:1011bc00000000003b960000f597000000000000c6
:1011cc000000000000000000000000000000000013
:1011dc000000000000000000000000000000000003
:1011ec00000000000000000010340020040000008b
:1011fc0000000000000000000000000044444444d3
:020000040000fa
:10120c00f0b58bb0040001910292242901d8012978
:10121c0003d11622b84b1a6056e0e36be26c934292
:10122c0024d25a1ce2631d78202df6d02b00093bea
:10123c00042bf2d90222223b9343002203929342c5
:10124c000bd12d3d6b425d416b420393e26ce36b22
:10125c00934210d25a1ce2631d78019be26c002b66
:10126c000ed0102b55d1302d0cd052e0200006f0b2
:10127c0039f90500d8e7200006f034f90500ece751
:10128c00302d44d1e36b934224d25a1ce2631d7877
:10129c0020232b43782b2ed1e36be26c93421ed28e
:1012ac005a1ce2631d781022944b01925b5d0f2b4c
:1012bc0000d8c7e0e36c002b00d1a9e1029ae36be4
:1012cc00002a11d0023be3630026002730003900ce
:1012dc000bb0f0bd200006f005f90500d8e72000a2
:1012ec0006f000f90500dee7013be3630021200076
:1012fc0007f082fee8e7019b002b00d1a0e0019be8
:10130c000a2b00d09ee00023019f02931ce00a23cd
:10131c0001937a4b01995b5d8b42f0d3002a02d08a
:10132c00e36b013be3630021200007f065fe70e7ef
:10133c00029ee36b7e43e26c7519303d029593423d
:10134c0068d25a1ce2631d782b00303b092b03d862
:10135c006b4b029a9a42ebd90027029e2b00303b32
:10136c000293092b33d8674b9f4213d802d1664b9b
:10137c009e420fd800230a223000390006f061fd8e
:10138c00029b049300230593049bdb434a1c46d128
:10139c00984244d9594b019a5b5d934217d2e36b47
:1013ac00e26c934200d318e15a1ce2631878534b59
:1013bc00019a1b5c9342f2d3109e119f22224e4b3a
:1013cc001a600123109a134201d000230393e36c9b
:1013dc00002b02d0e36b013be363119bbb4200d9b2
:1013ec000ce103d1109bb34200d907e10123109a01
:1013fc00134200d0f5e0039b002b00d0f1e0222239
:10140c0001267642f7173c4b1a60109b119cf6187c
:10141c0067415be7200006f065f8050094e7e36b95
:10142c00e26c049e059f36184f41934203d25a1c1e
:10143c00e2631d7892e7200006f054f805008de772
:10144c0008230193019b5e1e3340029300d0bce045
:10145c00019a173353432d4a1b065b0fd35c04933d
:10146c00264b019a5b5d9a4203d9294a0299914213
:10147c002bd9049a01204042c11707f067fe0027c0
:10148c00029e089006911d4b5b5d0293029a019b94
:10149c00934200d87ee7069b9f4200d97ae703d19e
:1014ac00089b9e4200d975e7049a3000390007f07a
:1014bc0059fe029be26c03431e00e36b0f00934248
:1014cc0015d25a1ce2631d78dde7029e049a964001
:1014dc00e26c1e43e36b0296934203d25a1ce26306
:1014ec001d78bde7200005f0fdff0500b8e72000e2
:1014fc0005f0f8ff0500c6e70c340020563f00004d
:10150c009899991999999919999999994c3f000019
:10151c00ffffff07029e019a5643f3180293e26cf9
:10152c00e36b93424cd25a1ce2631d783c4b019afc
:10153c005b5d9a4203d93b4a02999142ead9002752
:10154c00029e374b5b5d0293029a019b934200d83b
:10155c0020e7002f17d01a0000233000190006f0e6
:10156c0070fc002304913a001900019806f069fc04
:10157c00049b089300230993089a099b80185941ee
:10158c00002900d006e73b0032000198002106f04c
:10159c0058fc029b069300230793069bdb434a1cd3
:1015ac0002d1984200d9f5e6069e079fe36be26ce8
:1015bc0036184f4193420bd25a1ce2631d78c0e798
:1015cc00200005f08fff0500b0e700230293ade784
:1015dc00200005f087ff0500b3e7200005f082ff2f
:1015ec00e5e6119b9f4203d808d1109b9e4205d97a
:1015fc00109e119f22220c4b1a6067e6039b01334d
:10160c0000d063e633003c0000275e42a7415de654
:10161c00029b00260027002b00d057e666e6c0464a
:0c162c00563f0000c6711c070c34002063
:020000040000fa
:10163800f8b5de4657464e464546e0b50400150067
:101648000f260e404fb2431e033300d9c3e10823cf
:10165800d356022b00ddc1e10e230b4200d0c0e1be
:10166800436a9846330010339b00c31859683a11ef
:10167800082313408a469a445346db79db0700d493
:10168800b2e16b68994653469988484604f0f2fde2
:1016980000294cd0002f00dba9e1e378002b4cd0c7
:1016a8000023ab6103332b720023994669682962d2
:1016b80053461a68002a00d072e104232b720023d3
:1016c800eb6153461d60002e00d02be1002f00da9d
:1016d800e8e02123e35c032b6ad0042b00d1c7e0a8
:1016e800012b00d061e1e16c0832286807f046fe62
:1016f80082235b0040224146ca54f43b0822ff3251
:101708008b540a22ff328b542b689a79002a44d1d1
:1017180021230732e2545346aa691a6002232b7226
:10172800eb68002b00d140e1280098473de1002fed
:101738000edbe378002b00d05ce1a37b012b1bd0f0
:101748007f2040423cbc90469946a246ab46f8bd35
:101758002b7cda0706d54a46002a03d0802252425b
:1017680013432b74e378002be7d00023ab610333da
:101778002b720023994699e700239b46a3730a20fe
:10178800205606f0e1fc81465b46ab6103332b72c1
:101798000021002f00db8ae788e71b787f2b03d81e
:1017a80021230222e254b6e721230622e254b2e7bb
:1017b800266db604b60c286a6b6832189a4201d9ad
:1017c8001e1ab6b2e16c2b689c466044320007f0e2
:1017d800d5fd2b6af3182b626a6893421bd300234a
:1017e8002b7221330822e254203bff3241468b54ae
:1017f8000a22ff328b540433ff33c93aca542b6a86
:101808006b605346aa691a60eb68002b00d1cce0e4
:1018180028009847c9e053469b88b3421bd9012347
:101828002b7221220821a1540822ff3241468b54f1
:101838000a22ff328b540433ff33c93aca542b6a45
:101848006b605346aa691a60eb68002b00d1ace0c4
:1018580028009847a9e001230822ff3241468b540b
:101868000a22ff328b540433ff33c93aca549ce02e
:1018780000232122a3542b7201330822ff32414650
:101888008b540a22ff328b540433ff33c93aca54ab
:101898005346aa691a60eb68002b00d185e028003e
:1018a800984782e02123e35c062b14d0072b7cd1d8
:1018b80021230822e254236e9b0b9b0323660223f9
:1018c800ff3241468b540a22ff328b540623ff33e2
:1018d800893aca5469e02b6a52469688b34200d2c4
:1018e8009eb2e06d3200296807f048fd2b6a9b1b09
:1018f8002b6221230922e254236e9b0b9b03236650
:10190800226eb3049b0c1343236602230822ff3282
:1019180041468b540a22ff328b540623ff33893aff
:10192800ca5442e0002f12db29687301e218d1641f
:101938001e00464405220821ff31725433000a3341
:10194800ff331a7082235b003b32f2542de0286a81
:101958009b88984200d883b26a68101a2a6894460d
:1019680060447201a118c865286ac01a2862086e06
:10197800800b80030866086e9b049b0c03430b6670
:10198800160046440a230821ff31735432000a32f4
:10199800ff3213700623ff338022f25405e01a0049
:1019a8009369002bfbd19561ea61e3780020002b55
:1019b80000d0c7e64b46002b09d0a37a5ab2002aba
:1019c80005db1f221a40012393400e4a13600123ae
:1019d800a3730020b6e67d204042b3e67b20404258
:1019e800b0e67c204042ade676204042aae67d2063
:1019f8004042a7e60023ab6103332b7200239946cc
:081a080055e6c04600e100e0d4
:020000040000fa
:101a10000023f0b506001500afb0059101930599bc
:101a20000b78002b00d10fe101235b420a930eab30
:101a300000240c93802309940b940d930b5d002bd1
:101a400001d0252b2ad1002c06d02200300006f030
:101a5000a7fc059b1b190593059b1a78252a00d026
:101a6000e7e0013302930593022310219c460827e7
:101a7000059803782b2b1bd025d8202b1bd0232b8c
:101a80001dd02a2b2ad006f005fb0b90059b1a7857
:101a9000303a092a33d801330593f7e70134cde70b
:101aa0000122099b80180393134309930590dfe7f4
:101ab0000423099a0ee0099b03933b430be0099b27
:101ac00003930b4307e02d2bead0302bd9d162468c
:101ad000099b0393134309930130e7e72b68013017
:101ae0001a1d1b6805902a600b93002b07da099ad0
:101af0005b420392012203990b934a400992099b8e
:101b0000da0702d5022293430993059b1a782e2afd
:101b10000ed10022581c0a9205905a782a2a28d100
:101b2000023305932b681a1d1b682a6003930a93de
:101b300005a806f0effc059b0700187807f0c9fc24
:101b4000692800d183e035dc632800d1d6e01bdcb6
:101b5000252800d1dfe0612859d0252306aa13707b
:101b6000029b0593002309930b93013b0a930233d5
:101b7000b2e006f08ffa0a90059b1a78303a092aeb
:101b8000d6d801330593f7e7642860d06728e4dcf2
:101b90002a00390006a806f0bdfe002800d1a9e001
:101ba000059b09a95a1c05921b7806aa300007f06c
:101bb00019fe3de0702800d17de016dc6e2800d1d2
:101bc00091e06f28c9d12b000022390006a803f04c
:101bd00083fc002800d18de0059b06aa013309a9ea
:101be0003000059305f02af822e0752840d07828c7
:101bf0004fd07328b1d1802f00d07be0059b2a689d
:101c000001330593131d2b601268002364e02a0042
:101c1000390006a806f07efe002800d16ae0059b88
:101c200009a95a1c05921b7806aa300007f0dafdb4
:101c30002418019b1c19a34200dc74e04f223b4b8b
:101c40001a6001235b42019301982fb0f0bd2b0075
:101c50000122390006a803f03ffc00284ad0059b6a
:101c600006aa013309a93000059303f04efddfe712
:101c70002b000022390006a803f02efc002839d0e2
:101c8000059b06aa013309a93000059305f0e4fc81
:101c9000cee72b000022390006a803f01dfc002827
:101ca00028d0059b5a1c05921b7806aa09a930006a
:101cb00001f046fcbce72b000022f02106a803f04f
:101cc0000bfc002816d0059b079a01330593069b51
:101cd000134306d1164a163209a9300005f0aafeb0
:101ce000a6e77823e1e7019b39001a1906a82b0023
:101cf00005f088f9059b013305939ae7802ff9d108
:101d0000059b013305932b681a1d1b682a6006aae0
:101d100013700123e0e7802fecd1059b06aa013365
:101d200005931070f5e7019479e6c0460c34002065
:041d30007c8f0000a4
:020000040000fa
:101d340030b585b004000e2917d083001b18db00d2
:101d4400874ad3181b7d002b0dd183001b18db00a1
:101d5400d318dd68002d06d083001b18db00d318d0
:101d64001b690022a84705b030bd83001b18db00a7
:101d74007b49cb180021197511787f230b40012b67
:101d840013d0212b00d0e1e083001b18db00744941
:101d9400cb18dd68002d00d1d8e053780b2b00d987
:101da400cae09b006f49cb589f4653780a2b57d003
:101db4000b2b48d0062b09d083001c18e400684b79
:101dc4001c196068012105f044ffcce7d378212b6e
:101dd40009d0222b1fd0a3001c19e400604b1c194e
:101de40001232375bfe783001b18db005c49cb1874
:101df40099689079d3791b0203430a689a4200d9ff
:101e04001a00a3001b19db005549cb18596a5868fe
:101e140005f0f8ffdfe783001b18db005049cb18ff
:101e24009b689079d2791202196802438a4200d9d8
:101e34000a005968a3001b19db004948c3185868f5
:101e440005f0e0ffc7e79278474b1a7083001c182f
:101e5400e400434b1c196068002105f0fafe82e798
:101e640083001c18e4003e4b1c19606801223e49a3
:101e740005f0c8ff77e702a9d3780b7093784b700d
:101e84009079d3791b0203434b80a3001b19db0019
:101e9400334ad3181b690a0000212000a84762e7cf
:101ea4000f20684493780370a3001b19db002c49ae
:101eb400cb181b69020001212000a84753e78300c7
:101ec4001b18db00264ad3181b6900220221a847ed
:101ed40049e701a9d3780b7093784b709079d37943
:101ee4001b0203434b80a3001b19db001c4ad318bd
:101ef4001b690a0003212000a84734e70e20684428
:101f040093780370a3001b19db001549cb181b69d8
:101f1400020005212000a84725e703a9d3780b7008
:101f240093784b7083001b18db000d4ad3181b6990
:101f34000a000421a84716e7a3001c19e400084b73
:101f44001c196068012105f084fe0ce7a3001c192c
:101f5400e400034b1c196068012105f07afe02e7d6
:0c1f640028330020108600001d340020ef
:020000040000fa
:101f7000f0b5c64600b5754b9b7d002b00d1e2e065
:101f8000724a137edbb2927d52b2002a0ddb6f4a99
:101f9000137edbb2927dd20700d4c7e0db0700d40a
:101fa000c4e06b4d6b4c26002ce05bb2002beedaec
:101fb000664b5b8b07221340e9d0654ad387634b9e
:101fc00080221a76793a5a831b7e5b0705d55f4bd0
:101fd00004211a8d1a7e0a42fbd15d4b1b6a002b2d
:101fe000d5d05b4a516a02209847d0e7531c520073
:101ff000a15a19e0ff230b40544a1385544b1b7d13
:10200000002b21d1514b1b7edb0700d48ee0ab6847
:10201000ea68934200d186e04c4b596807230b4095
:10202000012be3d0531cb15c494a1269934292419f
:102030001340474ad360454b5a6807231340012b8e
:10204000d8d1424b1985d9e707f002f9404b1b68fc
:10205000002bd7d03e4a127f002a08d03c4a926912
:102060009042cfd33a4a516803209847cae7384a8a
:1020700092699042c6d1364a516803209847c1e719
:102080004246126a002a23d0696a01209047ab6a4f
:1020900001332a6b93429241134019e02c4a926a11
:1020a0002d498c542a4a93623423d35c002b1fd1d0
:1020b000264b1b7e5b0746d5244b1c8da4b2b36a0e
:1020c0000133326b934292411340fa6a9a42d7d05d
:1020d0001f4ad26a9a42ebd01c4a516807220a4032
:1020e000012adbd11a4a926a52001b498c52d9e765
:1020f00006f0b8fe164b1b6a002bd9d014493c22bf
:102100008a5c002a06d08a6b9042d1d3496a0020ab
:102110009847cde70e4a926b9042c9d10c4a516a5a
:1021200000209847c4e7094b01221a75074a137e1d
:10213000dbb2927d520706d55b0704d5044e37000b
:10214000b0463500b4e704bc9046f0bd0014004230
:0c21500090310020542500205421002074
:020000040000fa
:10215c00f0b5c64600b5754b9b7d002b00d1e2e077
:10216c00724a137edbb2927d52b2002a0ddb6f4aab
:10217c00137edbb2927dd20700d4c7e0db0700d41c
:10218c00c4e06b4d6b4c26002ce05bb2002beedafe
:10219c00664b5b8b07221340e9d0654ad387634bb0
:1021ac0080221a76793a5a831b7e5b0705d55f4be2
:1021bc0004211a8d1a7e0a42fbd15d4b1b6a002b3f
:1021cc00d5d05b4a516a02209847d0e7531c520085
:1021dc00a15a19e0ff230b40544a1385544b1b7d25
:1021ec00002b21d1514b1b7edb0700d48ee0ab685a
:1021fc00ea68934200d186e04c4b596807230b40a8
:10220c00012be3d0531cb15c494a126993429241b1
:10221c001340474ad360454b5a6807231340012ba0
:10222c00d8d1424b1985d9e707f016f8404b1b68fb
:10223c00002bd7d03e4a127f002a08d03c4a926924
:10224c009042cfd33a4a516803209847cae7384a9c
:10225c0092699042c6d1364a516803209847c1e72b
:10226c004246126a002a23d0696a01209047ab6a61
:10227c0001332a6b93429241134019e02c4a926a23
:10228c002d498c542a4a93623423d35c002b1fd1e2
:10229c00264b1b7e5b0746d5244b1c8da4b2b36a20
:1022ac000133326b934292411340fa6a9a42d7d06f
:1022bc001f4ad26a9a42ebd01c4a516807220a4044
:1022cc00012adbd11a4a926a52001b498c52d9e777
:1022dc0006f0defd164b1b6a002bd9d014493c22ac
:1022ec008a5c002a06d08a6b9042d1d3496a0020be
:1022fc009847cde70e4a926b9042c9d10c4a516a6d
:10230c0000209847c4e7094b01221a75074a137e2f
:10231c00dbb2927d520706d55b0704d5044e37001d
:10232c00b0463500b4e704bc9046f0bd000800424e
:0c233c00d0310020f42e0020682b00207f
:020000040000fa
:1023480010b5654b9b7d002b17d0634b5b8b9b07b0
:1023580014d5624b2022ff2199540132fd3999543a
:102368005e4a2023d35c5bb2013300d183e05b4a31
:102378002023d35c062b00d195e010bd564b5b8b18
:10238800db0707d5554b2022ff2199540132fd392f
:102398009954e5e7504b5b8b5b0707d54f4b2022e1
:1023a800ff2199540132fe399954d9e74b4a202329
:1023b800d35c5bb2032b40d0042b0fd0022bcfd1c0
:1023c8001369002b04d09088002105f06df9c7e748
:1023d800424b9888012105f067f9c1e73f4a9369a4
:1023e8001269934208d03d4a9168581c9061c95cb3
:1023f800394a2823d154b3e7384b5b69002b0ed0f8
:10240800364b9b885b0001221343334a5362d369de
:10241800002bfcd1314a20330321d154a0e72e4aa6
:102428005168c0239b020b435360d369002bfcd136
:102438002a4a20330621d15492e7284a5369013b9e
:10244800d2699a4209d0254bd968da69501cd861fb
:1024580021482823c35c8b5482e71f4a5168e02334
:10246800db020b435360d369002bfcd11b4a20339a
:102478000621d154e7e720230021d154164a516898
:10248800c0239b020b435360d369002bfcd1124b32
:1024980083221a76114b5b6a002b00d16de70f4a35
:1024a800906a984769e71300002220215a540131a5
:1024b8005a54094b83321a761900533a4b8b1340fe
:1024c800102bfbd1054b5b6a002b00d155e7034a63
:1024d800906a984751e7c04600100042d032002069
:020000040000fa
:1024e800f0b5de4657464e464546e0b585b0039002
:1024f8000f000292002a00d1afe0002900d1afe01e
:1025080001230343dbb203935a4b8022d2009a6122
:10251800962006f0c1fe02258024e400a1467fe053
:1025280072b608339846534e4b467361012006f045
:10253800b3feb461012006f0affe7460336ab46084
:102548005b05db0f3a78520013433b700a2006f014
:10255800a3fe01235b429c46e0444346002be3d1a3
:10256800444e7461062006f097feb461032006f01d
:1025780093fe62b63b78032b00d874e0ff2b69d03a
:10258800013b9bb2994672b6019e3a4c8025ed00fc
:10259800ab460ce06561062006f07efea5610320cf
:1025a80006f07afe0136f6b2b3b2994524d908236b
:1025b8009a465b466361012006f06efea561012024
:1025c80006f06afe6560236aa560721cba185b058e
:1025d800db0f117849000b4313700a2006f05cfeec
:1025e80001235b429c46e2445346002be1d14b4613
:1025f80063449e42d6dacde762b61e4c8026f600ca
:102608006661012006f048fea661082006f044fe37
:102618003b78029a13800ee0019bf02b0bd1013d11
:10262800012103a802f05efd031e019000d177e7a7
:102638006b1c002bf0dc0f4b8022d2009a61962095
:1026480006f02afe019805b03cbc90469946a24681
:10265800ab46f0bded230193ede7e2230193f1e7eb
:10266800e2230193eee76b1c002bd8dcf0230193e7
:08267800e1e7c0460044004107
:020000040000fa
:10268000f0b5d6464f464646c0b50f260e400e243e
:102690000c4000d0aee0fe27bf001d00083dadb2eb
:1026a000bd4200d9a9e0451c00d1a9e0456aa94670
:1026b000082b06d908250134e4b26d00adb2ab4257
:1026c000f9d835001035ad0045196d68002a3ad1aa
:1026d0002a60ab80aa710126e9793143e971aa60c9
:1026e000ab81aa73eb7b3343eb7380235b004946da
:1026f000ca541132ca54026d43490a400265036e3e
:102700000b400366036d2407e022d20514402343e7
:102710000365036e1c4304660369c3644369c365b0
:10272000036d5b005b080365036e5b005b0803667b
:102730000a23ff3313224946ca5400201cbc90468a
:102740009946a246f0bd49b28a4609118846082139
:102750008c464146674639408c46654400212960d5
:10276000ab80aa71eb7901218c4661460b43eb717a
:102770005346002b29db73014b441f0080235b0071
:10278000fd5c07218d43fd54fd5c52001f49525ce6
:102790001543fd540623ff334022fa545346d90f04
:1027a0007600761836018019036d174a13400365c9
:1027b000036d2407e022d20514401c430465036d19
:1027c0005b005b0803650020b8e773014b441f0002
:1027d00080235b00fd5c70218d43fd54fd5c520045
:1027e00094460a4a624452781543fd5404338022c9
:1027f000fa54d3e77c204042a0e77c2040429de78a
:102800007d2040429ae7c046ffffff8f44960000bc
:020000040000fa
:10281000f0b587b0039003a805f01cfc002802da8d
:10282000002007b0f0bd039b1b095d1e202d09d9b8
:102830004f49023b4f4a8b4224d8db08d318043b54
:102840001d7801352a000120002106f091fc0024aa
:1028500043428c4100930194474f00983a687b684b
:102860001040020001990b401a433fd1039b05a879
:102870001033059306f0b5fc002809d10c223f4b1c
:102880001a60cee7db09d318043b1d781135d9e770
:102890003b490c68a04206d0059b0400103b059301
:1028a0000123103483600125059be2180a602b4345
:1028b000083a083c28c26360002cb1d0200005f023
:1028c000effe00280bd023686168ab43e31a5a6817
:1028d000aa4352185a606168a94362501c00200044
:1028e000039906f094f9200008309ae7214a254917
:1028f0003c32002831d1584203404b43db0ed65cba
:102900002036300006f062fa731cdb00fc58083bee
:10291000fb189c42a0d0272e25dd0235ae4201dcfb
:102920003f2e20d101226368039f9343dd1b2800c3
:10293000009305f067fc864215d1e268a168e319af
:10294000da60996093609a68d360012217431f6030
:102950005d60009be5506760c1e7434203404b4325
:10296000db0ed65ccde73100200005f03bf8b6e782
:10297000ff01000094740000602900200c34002046
:082980005829002029e66b072d
:020000040000fa
:1029880010b5564b9b7d002b53d0544a51680723f2
:102998000b40127e52075bd5504a906a50494a69eb
:1029a800c9688a4254d2002b44d14d4b5968541cf3
:1029b8005c618854494b1b7edb0718d5474b0122c5
:1029c8001a75474b9a699b689a4258d2444b1968c2
:1029d800501c98618a5c414b9a62414b9a699b688a
:1029e8009a4262d03e4b5a69db689a4269d03b4ba7
:1029f8001b7e9b0716d53b4b1b78002b19d0384bf9
:102a08005a69db689a4211d1354b00221a7733494b
:102a18000720087533490a701b6a002b09d0304a11
:102a2800506a98472f4b1b78002b02d02b4b022261
:102a38009a7510bd2a4b5968541c5c61520050525b
:102a4800264b1b7edb07d2d5244b01221a7508e0e2
:102a5800224a127ed207cad5204a01211175002bbd
:102a6800afd01f4a93699268934213d21c4a1168e7
:102a7800581c90615b005a5a184b9a62ade7184b84
:102a88001b69002b23d0154aff219162013b144a90
:102a98001361a2e7124b1b69002b18d00f4a124989
:102aa8009162013b0e4a136197e70d4b1b69002b9e
:102ab80098d10c4b01221a70084b1b7e9b079ed4a1
:102ac800b4e7064b01229a7503321a758fe7044b57
:102ad8009a699b689a4200d084e7eae7000c0042b2
:0c2ae800fc3200201c340020ffff000026
:020000040000fa
:102af40010b54b4b1b78012b14d0002b02d0022baa
:102b040022d010bd0321002005f03efb444b586049
:102b1400431cf6d00022434905f076ff404b0122c6
:102b24001a70eee73e4b1b7c002bead03c49002395
:102b34004b7701338b7701330b708a6818313e333e
:102b4400002001f0f3fddce7354b1b7c002b03d1a7
:102b5400334b01221a70d4e7314b5b7f002b50d1e9
:102b64002f4b9b7f002bccd02f4b1b78002bc8d036
:102b74002e4b1b881a1c9bb2402b00d9402292b2c8
:102b84002b4b1a60264c0023a37740220021e068d7
:102b940006f070fc264b1a68264b1968264bc91898
:102ba400e06806f045f8e268210014314023002073
:102bb40001f042fd0028a4d11d4b19681d4b1a6871
:102bc40052181a60194a13885b1a9bb21380002b9f
:102bd40097d10024144b1c70184a0021164806f0a3
:102be40049fc144b1c60124b1c600d494c77144b70
:102bf4000422da618a6818314023002001f096fd2e
:102c04007fe7104804f062fa0f4b1b78012b03d0c6
:102c1400034b00225a7774e7094b0422da61f7e781
:102c24009433002095790000243400201a340020c5
:102c340000340020fc33002088130020c409000065
:0c2c4400004400415032002023340020e6
:020000040000fa
:102c5000022834d018d9032846d004282dd12d4b72
:102c60002d4a1a602d4a5a602d4a9a602d4ada6020
:102c70002d4a5a612d4a1a612d4a1a622d4a9a61cb
:102c80002d4ada61002017e0012814d1214b2b4a8c
:102c90001a602b4a5a602b4a9a602b4ada602b4af8
:102ca0005a612b4a1a612b4a1a622b4a9a612b4aa3
:102cb000da61002000e0e2207047e220fce7154bdb
:102cc000274a1a60274a5a60274a9a60274ada60d8
:102cd000274a5a61274a1a61274a1a62274a9a6183
:102ce000274ada610020e7e70a4b264a1a60264a9b
:102cf0005a60264a9a60264ada60264a5a61264a6b
:102d00001a61264a1a62264a9a61264ada61002026
:102d1000d2e7c04650330020399400009389000068
:102d2000ff770000f57800006d960000eb8f000043
:102d3000458f000045790000e92400000d8f000058
:102d40002f830000858a0000b1970000b59700002e
:102d5000b9970000bd970000317d0000514300008d
:102d6000af760000f3780000a55b0000f971000069
:102d7000157f0000557f0000f18e0000f5820000f5
:102d8000313d0000299400008b870000855200002f
:102d9000856d0000279600001d9600000577000055
:082da0007b850000053b0000eb
:020000040000fa
:102da800f0b5c64600b584b002abdd1d00239846d9
:102db8002b704c4f70220021380006f059fb03207d
:102dc800fff742ff484e3368984729003800b36838
:102dd80098472c7843462b700220fff735ff33685d
:102de8009847e000001b400038182900b36898474e
:102df8002b78e418e4b243462b700120fff724ff38
:102e080033689847e000001b400038182900b36871
:102e180098472b78e418e4b243462b700420fff758
:102e280013ff33689847e000001b40003818b36868
:102e3800290098472b78e418e6b243462b70002ef9
:102e480049d0284d0024294b10330093274b2c33ad
:102e5800019320e0012b19d1687805f03dfb0100b2
:102e68006b7b022b31d89b00214a9a582ee0687858
:102e780005f032fb01006b7b1c4a022b02d89b0039
:102e88001b4a9a58194b181d05f0acff0134e4b2df
:102e98000e35a6421fd02b78022b0dd0dad9032b82
:102ea800e5d0042bf2d1687805f016fb0100aa786a
:102eb800019805f097ffe9e7687805f00dfb010038
:102ec800aa78009805f08effe0e7084a0748203006
:102ed80005f088ffdae7034b187804b004bc904685
:102ee800f0bdc046bc2f00205033002058720000af
:042ef80058940000ea
:020000040000fa
:102efc00f8b504000d000e230b4202d0102900d0af
:102f0c0094e0631c00d194e0666ae378002b0dd149
:102f1c00a37b012b02d07f204042f8bd0023a3737a
:102f2c000a20205605f00ef9010000e00021102dba
:102f3c0015d00f222a404ad17f230932ff32b354d5
:102f4c000822ff32b35481330022f254636cda79d5
:102f5c0001208243da71da7b8243da7323e0842224
:102f6c0052001020b0540823ff33f0540027000106
:102f7c0037546f35b554f554636cda79ff388243a6
:102f8c00da71da7b8243da7390235b00f7540833ef
:102f9c00f5542823ff33f554a36cda798243da71a4
:102fac00da7b8243da73e3780020002bb5d1002959
:102fbc0009d0a37a5ab2002a05db1f221a4001233a
:102fcc0093401d4a13600123a3730020a5e76db243
:102fdc00002d1bdb5301f31880267600985d072724
:102fec00b843985505200826ff3698550933ff330a
:102ffc00187010329200a21853682d110822154037
:10300c005d19eb79073a9343eb71cce75301f31855
:10301c0080267600985d7027b84398550a200826bc
:10302c00ff3698550933ff331870e2e77c20404295
:0c303c0073e77d20404270e700e100e0f7
:020000040000fa
:10304800f8b504000a00002800d191e003680020c8
:10305800002b00d18de0002900d1464a1901914288
:1030680047d8190b1805002305f030f880225202c2
:10307800121a00250020002a7bd03f490b68023035
:1030880083430b60cb69002bfcd192b23a4b9a81f7
:103098006368022b55d0384a136838490b406d03d2
:1030a8001d4380235b041d4315605168a368e068d5
:1030b8000343334801400b4361680b4353602e4a76
:1030c800d369002bfcd12c4a136802210b431360ef
:1030d800d369002bfcd1284b5a6807231340012bd6
:1030e8003fd0284bc82252001a63c83a1a610120ff
:1030f8003fe0d900914209d8590bd804002304f0c5
:10310800e5ff80225202121a0225b3e75900c918b6
:10311800002091422dd8002118001e000f003618fb
:103128004f4180197941050c0b04060430001d43fa
:103138002900002304f0caff80225202121a042533
:1031480098e70d4a13680d490b406d031d43156040
:103158005168a368e0680343472081430b435360e9
:10316800ade7084bc8221a63643a1a61012000e0ef
:103178000020f8bd006cdc0200080042ff1ffff0d1
:08318800b8dfffffd031002089
:020000040000fa
:10319000f0b583b005000c004978032900d179e02f
:1031a0001dd9052930d009292cd1a278e3781b023a
:1031b000134304d1c17807220a40052a2ed0ad223c
:1031c000aa5cdbb29a4200d17fe0ae23ef5c002f15
:1031d00041d00233ea580023b4218c4633e0012960
:1031e0000ad1a278e3781b021343012b05d1bf3328
:1031f0000022c254002100e00121280004f02bfd30
:1032000003b0f0bd0121f8e7027880235b4213434d
:103210000370a278ac23c2540021eee7b833063223
:10322000c25404f07ffcad230022ea54eb7807324d
:10323000934304221343eb700021dee70133dbb23a
:103240000432bb4207d011684e79a0788642f5d18e
:1032500060462950f2e7a278ad23ea54280003f033
:1032600068faeb780722934305221343eb70a278a8
:1032700001ab1a70d523eb5c0021012bbdd1d733f4
:10328000eb58002b23d0dc22aa5801a90a2098472a
:103290000021b2e7a278e3781b021343012b0fd081
:1032a0000121022ba9d102780c331340022ba4d1a7
:1032b00063798370437801221343437000219ce7b4
:1032c000bf330122c254002197e7002195e7002176
:0232d00093e782
:020000040000fa
:1032d2000122d20703004b403dd430b4431a01d23d
:1032e200c01ac9184b004400240eff2c29d0002c10
:1032f20024d01b0e20d0e31a182b1ddc0902114327
:10330200c40d000210435d4219350a00aa40d209d9
:10331200d940451801d36d080234013ce405280a5e
:103322000121c9072d062a438a4160414100090e45
:10333200ff2901d3c00dc00530bc7047c00fc007c4
:10334200fae742001823da41ff2af5d07f20000174
:103352000c300005f0e7a4465140431a02d2534014
:10336200c01ac9184b00090211431b0e4400240e57
:10337200ff2c41d0002b10d05b421b19012b10d324
:1033820022d1c30d4002401a10d3db050100400ace
:10339200c90591415841644670472442fbd100203f
:1033a200f9e7c30d40024900401af4d0002101316f
:1033b2004000fcd38c4204d95b1adb05400ac018da
:1033c200e9e7180ac007e6e7192be4d801330c0035
:1033d200d940dc414c40012c4941c30d000210434d
:1033e200441a01d4a4006408013bdb05200a240628
:1033f2009441584164467047ff2b01d04102cad024
:0a3402007f2000010c300005c5e733
:020000040000fa
:10340c0070b5060000294fd000284dd04648007feb
:10341c00002800d085e0454c656807242c40012c21
:10342c0049d04148066042600024446184610461d3
:10343c003000441ea041404201403b488160501e78
:10344c00824152421a403848c260012404773748fe
:10345c00007e400705d5354c0420a56a257e054223
:10346c00fbd13248448b04252c434483047e8025b5
:10347c002c4304768a4202d9501a2b4c20612b48db
:10348c00406840072bd1284a92698a421cd2307876
:10349c0026498862013224498a61002b3cd0234b97
:1034ac0004229a7501203de00020002b3ad0002a1e
:1034bc00acd1002036e0002901d0cc0732d4002b4f
:1034cc00afd0dc07add52de0174a1269002ae4d045
:1034dc001649ff208862013a13490a61dde7490861
:1034ec00114881600469640804615208c2608269f1
:1034fc00914208d93188c905c90d0c488162013245
:10350c0009498a61c9e7002cc7d0084a0849916269
:10351c00013c054a1461c0e7044b01229a75012055
:10352c0000e0002070bdc046fc320020000c0042c0
:04353c00ff0100008b
:020000040000fa
:10354000f0b58fb00d934b680c9006938b680d000f
:103550000793cb6816000393069b0f68002b44db90
:1035600002239f4310233b400a93079b04930a9b2b
:10357000002b07d0726833681343079a02d01300f8
:10358000023b049308233b400b935a1e9341049a39
:10359000d31a04933368039a0893736809932b69c9
:1035a0005c1e00231355069b0593012c20dc0a9b0f
:1035b000002b52d10b9b002b03d02023039a013cfc
:1035c00013552b6900975a1e039b121b19190c984f
:1035d000079b03f02af90c9b5b68db0503d56b683e
:1035e000984200da18000fb0f0bd01230693b9e746
:1035f000089b099a13430cd1059b002b09dc069a02
:10360000049b9b1a059a9b18002bd0dd02231f42b6
:10361000cdd00f22089b013c134018005730092bd6
:1036200001dc303318000d9b413b192b06d82023b9
:103630000343613b192b01d805f052ff039b18553a
:10364000059b013b0593099b1a07089b1b091a431d
:10365000099b08921b090993a7e70cce1343a9d035
:10366000039b0d9a1b19013b1a703023039a023ced
:0436700013559fe768
:020000040000fa
:10367400f0b583b004000d0016000823c356002bd8
:1036840000dc86e0092900d981e08b00424ad35846
:103694009f464378042293434370e427c3591b6c29
:1036a4000021c0699847e3591b6c8021e069984761
:1036b400200004f035fae3595b6a1021e069984769
:1036c400e3591f6a402300228021e069b847902310
:1036d400e356022b07dc22008832e423e3589b6b79
:1036e4000021e0699847e3780722934303221343b8
:1036f400e370e423e3581b69e06998470723034018
:103704005b0020780e22904318432070e2680e2359
:103714001840022816d0b0239168e1501279023b78
:10372400e254ad230022e254d523e35c012b30d1d3
:10373400d733e358002b2cd0dc22a25831002800c8
:10374400984726e0a2335169e150127c023be254cf
:10375400e7e74378042293434370e5e74378042280
:1037640013434370e0e7e423c3585b69c069984797
:1037740001ae3080d8e7c378072293430122134374
:10378400c370d1e7c37807229343c370cce7002dfd
:0c379400cad103b0f0bdc046e4890000bb
:020000040000fa
:1037a00030b583b0002800d081e0444b1b78002b5b
:1037b00000d07fe0414b01229a731a7020301a54d6
:1037c0004c685c62c87b587200205870986318710e
:1037d0008d7a9d72cd7add720d7b1d734d7b5d738d
:1037e000d87022705a6a013093780342fcd10a23c0
:1037f000d370334b1b685b0b0193019a1f2313405b
:103800001f2b33d02d4a526a108d9b010343138521
:10381000019b9b05db0e1f2b2ad0108d03431385c4
:10382000019bdb045b0f072b24d0108d1b0303438c
:1038300013850b7a002b03d01378042003431370f5
:103840001e4b5b7a012b17d01c4a516a0b78022061
:1038500003430b70516a02228b781342fcd1174a42
:1038600020230221d154002003b030bd1a3bc9e708
:10387000023bd2e7043bd8e7104b5a6a18004c30a1
:1038800050623c22002098540a6a1a645a6a1389ca
:103890000c308343897b032906d09bb2138100211e
:1038a000064804f073ffcfe701310b43f5e7012031
:1038b0004042d9e701204042d6e7c046f82c00201c
:0438c0002460800000
:020000040000fa
:1038c400f8b5ce46474680b5040088460f250d401e
:1038d4000e230b4200d07ce0431c00d17ce0476afd
:1038e4002b0010339b00c3185e68c378002b10d1e3
:1038f400837b012b05d07f2040420cbc9046994627
:10390400f8bd002383730a20205604f01ffc81466f
:1039140001e000239946002d2dd182235b00f7227c
:10392400fa540823ff33783afa54f3790227bb4355
:10393400f371043d2900300004f0c0fff37bbb4366
:10394400f37330000830290004f0b8ffe378002056
:10395400002bd2d14b46002b09d0a37a5ab2002aad
:1039640005db1f221a40012393401d4a13600123e3
:10397400a3730020c1e743465bb298461b1108209d
:1039840018403018c37902229343c3710421494279
:1039940004f094ff4346002b0ddb6d017d19822357
:1039a4005b001022ea540822ff322021a954073a6e
:1039b400ff3aea54cae76d017f1982235b00202293
:1039c400fa540822ff324021b954063aff3afa5415
:1039d400bce77c20404290e77d2040428de7c04612
:0439e40000e100e01e
:020000040000fa
:1039e80070b582b0040016006b460022da710e2909
:1039f80001d002b070bdec2545433f4bed18b279bc
:103a0800f3791b0213432a00e03213802b00e433be
:103a18001b681b6c7231e86998473378db06db0e4c
:103a2800dab2012a2cd05bb2002b09d0022a38d096
:103a3800032aded132000e21280004f0cffed8e799
:103a48003278602313400cd152b2002a04db3100d3
:103a58002800fff799fbcce73100280000f0f6fbbf
:103a6800c7e7402b06d0202bc3d10121280004f042
:103a7800eef8bee732000e21280004f0affeb8e7ea
:103a8800327860231340402b05d03179320028006a
:103a980003f003ffade731793200280003f0fdfea3
:103aa800a7e7317900290ad1337860221a421bd15d
:103ab8006b46d9793200280002f0b4fc99e76b46ce
:103ac800da1d280004f002faec2363430a4ce418d8
:103ad800e27807231340052b01d10028e4d1012106
:103ae800280004f0b4f884e76b46d979320028003e
:0c3af80003f0d3fe7de7c046082e00203e
:020000040000fa
:103b0400f0b5de4657464e464546e0b583b0894695
:103b1400924600236a46d371524613800b701327d2
:103b2400002668e04b461b7823434a461370640022
:103b3400e4b2002c0bd02e70280003f00df80028fe
:103b440005d12b7842465340012bf0d8eae74b4687
:103b54001b78002b4bd052461380013f7fb27b1c55
:103b640001d1eb2435e0002f3bdd4b461b78032bc2
:103b740039d9c82b39d84a46561c013bdbb29a4680
:103b840000239b461f1c7f23984619e03378234368
:103b940033706400e4b2002c0cd02f70280002f0c3
:103ba400dbff002805d12b7842465340012bf0d887
:103bb400ece7040001364b46db43f3189a4505dd78
:103bc4005b46337001246b46dd1de6e75a2005f0a1
:103bd40065fb200003b03cbc90469946a246ab4628
:103be400f0bdeb24f5e7e624f3e7ed24f1e7013f2c
:103bf4007fb27b1cb5d005f095f9882004f07efdda
:103c040004005a2005f04afb002cf0d101346b4625
:083c1400dd1d7f2398468ee7b9
:020000040000fa
:103c1c00f0b585b005000e000478012c26d0002ce0
:103c2c0007d0022c40d0032c5bd0e224200005b03e
:103c3c00f0bd3b4f39000831192205f09dfb2800df
:103c4c0005f01cfc390024310004000c28180a2350
:103c5c00029300230193023300930133002205f0f9
:103c6c00c5fa280005f00afc3080dfe72c4c210057
:103c7c003c31092205f080fb280005f0fffb2100f8
:103c8c0024310004000c28180a230293002301930a
:103c9c0004330093033b002205f0a8fa280005f03a
:103cac00edfb30800024c1e71d4c21004831092276
:103cbc0005f062fb280005f0e1fb21002431000433
:103ccc00000c28180a23029300230193013300935c
:103cdc00002205f08bfa280005f0d0fb3080002480
:103cec00a4e70f4c21005431092205f045fb2800b4
:103cfc0005f0c4fb210024310004000c28180a2311
:103d0c0002930023019302330093013b002205f040
:103d1c006dfa280005f0b2fb3080002486e7c0461f
:043d2c00944d0000b2
:020000040000fa
:103d3000f0b5ce4600b584b0050001900c00160029
:103d400002ab0122da8002abfe325a71002e6ad039
:103d500000296ad000233380384b187805f0b2fb75
:103d6000002811d002ab591d23780b7063781b0219
:103d7000a778ff18bfb202ab9a1d280004f0bafa68
:103d8000002854d1022502e001258027ff0002ab64
:103d900005331b78102b14d0ff2b12d07f22134039
:103da000302b01d0012f36d101222100019804f0df
:103db00055fe0127002834d1378004b004bc914659
:103dc000f0bd2a002100019804f048fe002831d1fe
:103dd000012d1dd02278120263789b189bb2994660
:103de0004f4526d3ab1ce6204b4523da134b1878fe
:103df00005f068fb002802d14b46fe2b1cd84b4631
:103e00005a1b92b26119019804f028fe4f46d1e77f
:103e100023789946e4e73a002100019804f01efe59
:103e2000c8e72f00c8e7e220c7e7e220c5e7022580
:103e300000e0ed202f00bfe7e720fbe72134002062
:020000040000fa
:103e400070b5002841d00468002900d136496300cc
:103e500099423cd3354b9c423bd8080004f0e5ff27
:103e6000051c200004f0e1ff011c281c02f0f2f800
:103e7000061c2f49281c01f0edfb2e49fff729fafb
:103e8000011c301c05f0f0fa04f0fafe05002a4b84
:103e90009c4209d8ff235b00ff209d421cd8fe38be
:103ea000012d19d9680817e07e23ff33984212d8f4
:103eb000032836d94000032102f0a4f906020321a9
:103ec000280002f09ff9304306e0002028e000209f
:103ed00026e0002024e019481749a14289414942bf
:103ee000174a13680224a3431360d369002bfcd143
:103ef000134bd8601a681348024009061143196031
:103f00001a6802210a431a601a00d369002bfcd1f7
:103f10000b4b10225a831a00d369002bfcd10120cd
:103f200070bd0948d8e7c046006cdc0240420f0073
:103f300095bfd63300002041801a06007fff0000a5
:0c3f400000100042fffffffc0102000027
:020000040000fa
:103f4c00000102040703060500ffffffffffffff50
:103f5c00ffffffffffffffffffffffffffffffff65
:103f6c00ffffffffffffffffffffffffffffffff55
:103f7c00ffffffffffffffffffff00010203040530
:103f8c0006070809ffffffffffffff0a0b0c0d0ed2
:103f9c000f101112131415161718191a1b1c1d1ead
:103fac001f20212223ffffffffffff0a0b0c0d0e2a
:103fbc000f101112131415161718191a1b1c1d1e8d
:103fcc001f20212223ffffffffffffffffffffff4b
:103fdc00ffffffffffffffffffffffffffffffffe5
:103fec00ffffffffffffffffffffffffffffffffd5
:103ffc00ffffffffffffffffffffffffffffffffc5
:10400c00ffffffffffffffffffffffffffffffffb4
:10401c00ffffffffffffffffffffffffffffffffa4
:10402c00ffffffffffffffffffffffffffffffff94
:10403c00ffffffffffffffffffffffffffffffff84
:0a404c00ffffffffffffffffffff74
:020000040000fa
:024056007047b1
:020000040000fa
:1040580070b582b00c001600087805f049f8051e06
:1040680000d16fe0407800282ad1ab78002b2ed001
:10407800354910226431200005f080f92b78022b95
:104088003bd0032b43d0042b4bd0012b53d12f4bc8
:104098005968200005f0b7f8200005f0f1f980b262
:1040a800ab78294920180a2200920022743105f0c1
:1040b8009ff8200005f0e4f93080002002b070bdc0
:1040c80004f00afa0100200005f098fad6e71f4b21
:1040d8001968200005f092fa200005f0d1f91a4974
:1040e8000004000c20180a22603105f081f8200035
:1040f80005f0c6f93080c520e0e7144b9968200028
:1041080005f081f8200005f0bbf980b2c8e70f4b35
:10411800d968200005f077f8200005f0b1f980b2e1
:10412800bee70a4b1969200005f06df8200005f07c
:10413800a7f980b2b4e7054b1968200005f063f8c9
:10414800c520bbe7c520b9e7944d000064350020c1
:020000040000fa
:10415800f0b5d6464f464646c0b5002867d1002977
:1041680068d08b69002b68d0354b0130187200225b
:104178001a83da780724a243da708a69da600e8a29
:104188001e824d695d610c7f0722144024011a7854
:104198007027ba439246002291460027b846c027a6
:1041a8004246da555246224382437f2422401a70ff
:1041b8005a785b3ca4469c44643467461f510434d7
:1041c80040271f510c341855083c4f461f550434de
:1041d8001c4f1f5108341b511b4c1c679b677424d0
:1041e80018558243033082435a70d4224846985463
:1041f8001032486a9850498c04329952002e10d0d7
:1042080000241e0005e010350134e4b2338aa342cd
:1042180007d9eb68002bf6d01b69002bf3d0984721
:10422800f1e700201cbc90469946a246f0bd01204b
:104238004042f7e701204042f4e701204042f1e71d
:0c424800082e002045450000336f0000e8
:020000040000fa
:1042540030b583b005000c00002301934b78062b86
:1042640014d0082b5ad0002b3bd1bc2143520378e5
:10427400db07c022805cbf3a02405200db0f1343cd
:104284006b542b00bc33019302204be0c068cb7805
:10429400072b57d89b002c4ad3589f462a780e23c5
:1042a4001340022b03d003680193122032e0c36849
:1042b400019312202ee08b78ae22aa5c9a4210d988
:1042c400b022aa589b009b58002b0ad001939a78dd
:1042d400d8780002104325e02a7870231340102b6d
:1042e4002ed00121280003f0b4fc29e02a787023a1
:1042f4001340102bf5d1023b1a40022a03d0436a23
:1043040001930a2006e0036a01930a2002e001aa4d
:1043140001f0bcff0199002905d1e2e70300ad33a8
:10432400019301200199a279e3791b0213431a1c1a
:104334009bb2834200d9021c92b2280003f062fdb2
:0c43440003b030bd0020e5e74c8d000008
:020000040000fa
:10435000f0b583b00e00151e00d16fe0002900d12a
:104360006ee00023138008786b46d8714a781202f9
:10437000897889188cb27f230340302b04d0022720
:10438000012c02d1270000e001272e4b802292024f
:104390005a6101216b46d81d05f0b0f8f0230028c2
:1043a00007d1284a8021890291612f80180003b02b
:1043b000f0bd0121244803f06cfd031ef1d16b46d2
:1043c00007331b7840229343902b27d039003000cd
:1043d00005f002f8e6230028e3d039001a4803f07c
:1043e00058fd031eddd1012fdbd033781b02777817
:1043f000ff18bfb2ed23bc42d3d3073b042fd0d963
:10440000b91eb01c04f0e8ffe6230028c9d0b91e8d
:1044100089b20d4803f03dfd0300c2e721003000e2
:1044200004f0daff002802d12700e623b9e72100d3
:10443000054803f02efd03002700b2e7e223b5e7ad
:0c444000e223b3e70044004140420f00bb
:020000040000fa
:10444c00f8b5ce46474680b5060088460f240c408a
:10445c000e230b4268d1431c69d0476a23001033ea
:10446c009b00c3185d68c378002b10d1837b012b94
:10447c0005d07f2040420cbc90469946f8bd0023e5
:10448c0083730a20305603f05dfe814601e0002361
:10449c009946002c2ad043465bb2002b3edb0834f5
:1044ac0064013c19102262711b1108221340ed1893
:1044bc0003214942280004f0fdf9eb790222134351
:1044cc00eb71f3780020002bd5d14b46002b09d093
:1044dc00b37a5ab2002a05db1f221a4001239340fb
:1044ec00144a13600123b3730020c4e70623ff337f
:1044fc002022fa54103afa54033c2100280004f00c
:10450c00d9f90227eb793b43eb71280008302100e5
:10451c0004f0d0f9eb7b3b43eb73d2e70834640136
:10452c003f1920227a71bfe77c204042a3e77d200f
:08453c004042a0e700e100e0ad
:020000040000fa
:1045440070b505000823c3569a1c41d04469022b58
:1045540007d04268002a42d1c423e25400210f2626
:104564001ee0c233e35c002b0ed02300c433db68af
:10457400002b09d0d822a558ab422ad02200c4323d
:10458400908800220c219847c4230122e25423007e
:10459400c433284ada60228b9a80210024310e2603
:1045a4002300c433db68d822a558ab423cd0220098
:1045b400c43290880a00310098478c234022e2508c
:1045c40022008832e0695833e3589b6b00219847f6
:1045d40070bddc23e25800210c20a847d4e7c42393
:1045e400e35c002b1dd02300c43358789b788342ae
:1045f40002d800210d26d3e7cc23e3581818210054
:10460400243104f0bdfe2200c4326b6851785b187b
:10461400dbb253709278002101269a42c0d80c363e
:10462400bee700210126bbe7dc23e2583000a8479f
:08463400c3e7c046e9390000ac
:020000040000fa
:10463c00f8b504000d00012149422960012860d819
:10464c0081000918c9003348095c89075cd5a100b1
:10465c000919c90041188e68c869b168884256d2d8
:10466c002d494978012903d0602676423000f8bde7
:10467c002949002048702949097a49b201290bdde2
:10468c0026482c2141560127012906dd224b012207
:10469c005a7080267642e9e700272048f900ce19a7
:1046ac00b60086197360cb199b001a501c4bf36033
:1046bc0074612e6004f0c8ffa7003f19fb00154f72
:1046cc00ff18fb690133fb6104f0c2ff797d786848
:1046dc00320004f083fa061e03d10f4b01225a70ec
:1046ec00c4e704f0b1ff0b49a3001a19d2008a18d1
:1046fc00d369013bd36104f0abff01235b422b6018
:10470c00ebe778267642b1e776267642aee780264e
:10471c007642abe72833002014340020c830002048
:04472c007d6a0000a2
:020000040000fa
:10473000f8b504000d00012149422960012860d824
:1047400081000918c9003348095c49075cd5a100fc
:104750000919c90041188e68086af168884256d262
:104760002d494978012903d0602676423000f8bdf2
:104770002949002048702949097a49b201290bdded
:1047800026482c2141560127012906dd224b012212
:104790005a7080267642e9e700272048f900ce19b2
:1047a000b600861973601e4bf360cb199b001a503c
:1047b000746104f04fffa7003f19fb00154fff186d
:1047c0003b6a01333b6204f049ff2e60397e786812
:1047d000320004f009fa061e03d10f4b01225a7071
:1047e000c4e704f037ff0b49a3001a19d2008a1856
:1047f000136a013b136204f031ff01235b422b601b
:10480000ebe778267642b1e776267642aee7802659
:104810007642abe72833002014340020c830002053
:04482000ed6a00003d
:020000040000fa
:10482400f0b5c64600b50600344b18600024344f7a
:1048340006e08578b5421ed00134e4b2082c3cd0a1
:10484400200004f057fc3b78002bf2d08578b54269
:10485400f2d102789046934205d0032becd1130099
:10486400033b012be8d84178264b1970447b244b39
:1048740000221a7005e0037898464178214b19709c
:10488400447b4346023bfd2213421fd0022342468f
:104894009a43012a13d1080003f020fe05002000ea
:1048a40004f040fc0300424692001749515817484f
:1048b4002a002c3004f098fa19e000239846134893
:1048c40001004031503004f08ffa10e0080003f08a
:1048d40005fe0600200004f025fc43469b000a4a1e
:1048e40099580a482b003200183004f07dfa4046eb
:1048f40004f00cfc04bc9046f0bdc046ec33002030
:104904002234002021340020643500202c5f000074
:020000040000fa
:10491400f8b5de4657464e464546e0b5834600297f
:1049240061d0324b1f6900249c461e0008e03048c9
:104934004d4685542d4a9360631c01348b4243d207
:104944002c4b5a6807231340012b19d0b268f56821
:10495400531cbb42804103409d4236d05846005d03
:104964008146244840688246072080465046454692
:1049740028400128dbd152001d484d468552d9e715
:1049840063469a68db689846531cbb4280410340e7
:1049940098451ad060005d46285a814615484068fb
:1049a400824607208046504645462840012806d0c6
:1049b4000f484d4685540d4a9360631cbde7520071
:1049c4000b484d468552f6e71c0004f03bfa0028dc
:1049d40002d0084b01229a7520003cbc90469946af
:1049e400a246ab46f8bd0c00efe7c046903100206c
:0849f4005425002000140042cc
:020000040000fa
:1049fc00f8b5de4657464e464546e0b58346002997
:104a0c0061d0324b1f6900249c461e0008e03048e0
:104a1c004d4685542d4a9360631c01348b4243d21e
:104a2c002c4b5a6807231340012b19d0b268f56838
:104a3c00531cbb42804103409d4236d05846005d1a
:104a4c0081462448406882460720804650464546a9
:104a5c0028400128dbd152001d484d468552d9e72c
:104a6c0063469a68db689846531cbb4280410340fe
:104a7c0098451ad060005d46285a81461548406812
:104a8c00824607208046504645462840012806d0dd
:104a9c000f484d4685540d4a9360631cbde7520088
:104aac000b484d468552f6e71c0004f0e3f900284c
:104abc0002d0084b01229a7520003cbc90469946c6
:104acc00a246ab46f8bd0c00efe7c046d031002043
:084adc00f42e00200008004246
:020000040000fa
:104ae400f0b5d6464f464646c0b50600431c45d0f1
:104af400ec224243334b9b181b7a5bb2002b3ddd07
:104b0400ec2242432f4b9b18d4331b78002b1cd030
:104b1400012b33d1ec2242432a4b9b181b8a984623
:104b2400002b2bd0274bec224243d75c3f077f0f4f
:104b34009b181a00ad32127891465d690024ec236b
:104b44004343204ad618b24625e0ec2343431d4c88
:104b5400e4182300e8331888043b1b681b680f2102
:104b64009847e061431c09d0ec237343154ef618b3
:104b74003300d43301221a70022333721cbc9046d2
:104b84009946a246f0bda888984710350134e4b28e
:104b9400a3b24345f2d22b783b42f6d06b784b4517
:104ba400f3d1f27807231340052beed153465b78fb
:104bb4005b07ead4eb68002be7d0db68002be2d17b
:084bc400e3e7c046082e0020c3
:020000040000fa
:104bcc00020200006a0100000a020000020200005a
:104bdc00020200000a0200000a0200000a020000a1
:104bec000a0200000a0200000a0200000a02000089
:104bfc000a0200000a0200000a0200000a02000079
:104c0c000a0200000a020000020200000202000078
:104c1c00100300001803000018030000e802000055
:104c2c0018030000e002000000030000180300005d
:104c3c00180300001803000018030000080300000c
:104c4c0018030000180300001803000018030000ec
:104c5c0018030000180300001803000018030000dc
:104c6c00180300003a020000ca03000026040000ea
:104c7c002604000026040000ea03000026040000bd
:104c8c0026040000c20300002604000016040000e5
:104c9c00d20300001e0400002604000026040000bd
:044cac000e040000f2
:020000040000fa
:104cb000f0b5060085b00f0015001c008b4265d8ca
:104cc00001d1824262d82100280004f05dfa390047
:104cd0000090300004f058fa009b21001b1a1a00c3
:104ce0002800039304f044fa00900191019bbb4219
:104cf00046d802d1009bb34242d8009b019c039a44
:104d000001200021f61aa74104f032fa039b002b80
:104d10002fd0019b009adb0754081c43019b5d08c0
:104d2000039b9c46bd422ed801d1b4422bd8320001
:104d30003b00121bab41012692185b410027b618bd
:104d40005f4101235b429c446346002bead18019fa
:104d50007941039a04000d003000390004f0fcf999
:104d6000039a06000f0004f003fa241a8d41200074
:104d700029000a9b002b01d01e605f6005b0f0bdca
:104d800000200021c2e7b6197f41dae700200021a8
:024d9000efe74b
:020000040000fa
:024d9200704768
:020000040000fa
:104d9400506172736572200043727970746f41754b
:104da40074685472757374506c6174666f726d209c
:104db4000000000025303258282530325825303282
:104dc40058253032582925630000000053484132e9
:104dd400303441200000000041455331333241203a
:104de40000000000454343313038412000000000fa
:104df40025630000756e6b6e6f776e5f6465766910
:104e0400636520002530325828253032582925631f
:104e1400000000002e2e2e2e2e2e2e2e25730d0a6f
:104e2400000000000d00000025733a2025730d0ad0
:104e34000a00000025733a202573000025733a20e8
:104e440025730d0a000000003a7400003a54000073
:104e54003a73656e64000000526563656976656443
:0c4e64000000000053656e740000c046a2
:020000040000fa
:104e70001a000000d49700001600000038950000ca
:104e80000e0000008c9600000600000094960000c2
:104e9000130000009c9600000b0000005c950000d1
:104ea00011000000bc96000005000000c496000040
:104eb000020000009895000004000000dc9600004d
:104ec00000000000e496000017000000d8970000e2
:104ed00012000000d49600000d000000ec960000c7
:104ee0000a000000dc9700000c000000a495000000
:104ef00003000000fc960000090000000497000079
:104f0000070000000c970000180000001c9700002c
:104f100001000000bc95000014000000c8950000ce
:104f200015000000d495000019000000e097000073
:104f30000f0000004497000010000000649700007c
:084f4000080000006c9700005e
:020000040000fa
:104f48000d2d2d2043727970746f4175746820544b
:104f58007275737420506c6174666f726d28444d5d
:104f680033323031313829202d2d0d0a2d2d204393
:104f78006f6d70696c65643a204a756e2020312027
:104f8800323032332030383a31303a3439207631c1
:104f98002e312e30202d2d0d0a2d2d20436f6e73ae
:104fa8006f6c65206c6f6720283131353230302db9
:104fb800382d4e2d3129202d2d0d0a0d0000000011
:104fc8004b69745061727365722056657273696fac
:104fd8006e3a207625642e25642e25640d0a00007d
:104fe80044657669636520446973636f7665727991
:104ff8002e2e2e2e2e0000000a25730d0000000014
:10500800436f6d706c657465640000000a25730d4c
:045018000a00c04684
:020000040000fa
:10501c00f0b583b00400080009ab1b78042b4bd00f
:10502c00052b59d10a9bdb78db439b0754d10a9b98
:10503c009a7853b2002b1fdb284ea5002b19db00ee
:10504c00f3181a760a990f79497909023943598369
:10505c000a9b19795b791b020b43009303230021f4
:10506c0003f03dfc2b19db009a5d04210a439a5591
:10507c00f51800232b622fe0184ea5002b19db002e
:10508c00f3185a750a990f79497909023943d9826b
:10509c000a9b19795b791b020b43009303230021b4
:1050ac0003f01dfc2b19db009a5d02210a439a5573
:1050bc00f5180023eb610fe00849a3001d19ed0062
:1050cc006e5c01273e436e541d19ed004d1968604e
:1050dc00aa600a9b09336b6203b0f0bd2833002031
:020000040000fa
:1050ec00f0b5de4657464e464546e0b585b080469f
:1050fc000191002853d072b600239a46002906d09d
:10510c00284b1a8869464a809b889b4639e00020c8
:10511c003be0254f8023db0099467b61207804f02f
:10512c00b9f84b46bb61607804f0b4f86d08013ee9
:10513c00002e0dd0434652469b5c02aa6946498814
:10514c0011805946918014002b42e2d103ace0e768
:10515c004c467c61012004f09df8bc61012004f0f8
:10516c0099f87c603b6abc6023420dd10a2004f0a4
:10517c0091f853460133dbb29a469bb2019a9342a3
:10518c000bd208268025d5e7f02062b605b03cbcd2
:10519c0090469946a246ab46f0bd0020f5e7e220ca
:0c51ac00f4e7c046749600000044004187
:020000040000fa
:1051b800f7b5002858d00838436801221e009643e6
:1051c80085192a680400934200d0ffde01276b6826
:1051d800226813403b420ed1200003f05dfa0028fc
:1051e80043d1280003f09ffa0028f0d06b68bb4336
:1051f800f618ed18ebe73b003343636030002b6093
:1052080002f0fcff019003f0ddfd6b68226813409b
:105218003b42e1d0184b019a1868596803f098ff8f
:10522800384212d1019a0120002103f09dff0b00a2
:10523800002804d0104a126802430f480260002b6d
:1052480003d00d4a53680b435360019b0a4a01334c
:10525800db00d3181a005b68083a66602e60e360ca
:10526800a260d460e3689c60f7bd2368bb43e41a7e
:0c5278006368bb43f618b4e7602900200f
:020000040000fa
:10528400f0b5c3b006000d0041ab04241c7011221c
:105294005a7022329a701032da70bb32002101a89f
:1052a40004f0e8f800232b706b465c80002004f0c7
:1052b400b8f90a2003f0d6fe002001f061fd1e209b
:1052c40003f0d0fe6b469a1c01a90020fef718fcdf
:1052d400002806d1042241a901a803f05bfe00289e
:1052e40004d0002004f09df943b0f0bd01ab0721c8
:1052f400197030225a7000229a70da701a710332cf
:105304005a715a329a716b4659806b469a1c01a99c
:1053140002f0f6f90028e4d101a803f05bf80028b4
:10532400dfd0371d04226b46591d380004f028f8dd
:105334000023b370013c3470380001f0c3fd707079
:0a53440074732b7801332b70cbe754
:020000040000fa
:02534e007047a6
:020000040000fa
:1053500070b5040003011b181a012d4b9b18203354
:105360001b785bb2002b0cdd1300294ad3189b6b12
:10537000002b06d003011b181b01d3185d7a012de9
:1053800000d070bd03011b181b01d3181b6c002b30
:1053900020d09847060023011b191a011c4b9b18ab
:1053a0003c331b788342ecd001281cd023011b190d
:1053b0001b01174ad3181b79002b21d125012d1968
:1053c0002b01d51800220921686bab6b984701238c
:1053d0002b7115e003011b181a010d4b9b183c3370
:1053e0001b78012bcdd0260136193301084ef61853
:1053f00000220821706bb36b9847002333712e0095
:1054000023011c192401024b1b193c331e70b8e701
:04541000f82c002054
:020000040000fa
:10541400f0b583b005000c001600042848d0294bd1
:105424001b78052b1ad00ed9062b0fd0f12b20d1c7
:105434000a2302002449200003f0dcfe200004f0cb
:1054440021f830803ae0013b022b12d81f4b1a8816
:1054540032801f49200003f093ff2fe00a2302004b
:105464001949200003f0c6fe200004f00bf8308038
:1054740024e0164b188800280ad10a232a0012496e
:10548400200003f0b7fe200003f0fcff308015e09d
:105494000f4f390000f092fd0c4b18800a490a2383
:1054a40000933b002a000c31200003f0a3feeae73e
:1054b4000a2304220449200003f09cfe002003b0c8
:1054c400f0bdc046253400202c5f000016340020b7
:0454d40000000020b4
:020000040000fa
:1054d80010b588293cd015dc81294dd003dc802902
:1054e8004ad0002010bd822911d08429f9d1196829
:1054f800002a26d00a1d1a6000228b5e0360db1783
:10550800436011e0a02930d010dc9029e9d1196856
:105518000724002a2ed00919a1430a0008321a606c
:105528000b684c68036044600120dbe7c02901d0a8
:10553800f029d6d11a68111d196013680360002379
:10554800dee70c1d1c600b689bb203604260ebe752
:105558001968002a04d00a1d1a600023cb56cde72b
:105568000c1d1c600b68dbb2efe71a68111d19608f
:105578001368c3e70731cfe71968002a03d00a1d6b
:0e5588001a600b68bae70c1d1c600b68dde7ab
:020000040000fa
:02559600fee72e
:020000040000fa
:10559800214a136a21490b4002210b431362082355
:1055a800d1680b42fcd01c4b00229a611c4b1d4a4f
:1055b8005a601d4a9a601a0053785bb2002bfbdbd5
:1055c800174b1a4a5a80144b81225201da642f224f
:1055d8009a6415320221995418004e31413a435cbd
:1055e8001340032bfbd10e4b842252025a601a003f
:1055f80053785bb2002bfbdb094b0d4a5a800d4aee
:105608005a800d4a5a800d4a5a800d4a5a800d4bcd
:105618000d4a1a627047c046000800400000ffcfdc
:10562800000c0040010601000108000001410000d3
:10563800064000001440000015400000164000001d
:0c56480017400000000400403c0001007e
:020000040000fa
:1056540030b405004d400124e407254042004b00ce
:10566400120e32d01b0e3cd0ff2a33d0ff2b3fd07a
:10567400d21800022043000a09022143090ac4b2d5
:105684004c43000ac3b24b43000a4843210a5b1847
:10569400190a091801d44900013a080a7f3a2adb99
:1056a400fe2a0fd2d2051c43240601d00124214333
:1056b400c9b280295041802901d1400840002843c3
:1056c40030bc7047ff20c005f9e71b0eff2b0ad042
:1056d4002800f5e7400206d1ff2bf3d1490202d19d
:1056e400f0e7ff2af4d17f2000010c300005e7e742
:1056f4004902f8d1e6e743020132e9d15b120233f1
:06570400e6d9d805e4e738
:020000040000fa
:10570a00f0b54b6889b005930b6807009c46079370
:10571a00cb680c008e68049310685168cd0f44d092
:10572a000b000200002150429941059b002b08db27
:10573a000222634693430793002d02d1079b5a071f
:10574a002ad5731e07aa02920a22009301920b001d
:10575a000200200000f0a9ff002d02d1079b5a0782
:10576a001ed501382d23002d00d1023b049a135473
:10577a0023695a1e049b121a1918079b38000093b2
:10578a00330001f04df87b68db0503d56368984266
:10579a0000da180009b0f0bd1b07db0ff31ad1e7d6
:1057aa001b07e5d501382023e0e7059b002bbfda6c
:0257ba00c4e742
:020000040000fa
:1057bc00f0b583b004000d0003f05aff002c47d065
:1057cc00002d47d002000021200003f04ffe0023e3
:1057dc002b80fdf7e3fa060008221f49200003f096
:1057ec00cbfd002e13d11d4b1968200003f009fdd1
:1057fc0001a90a230b7000234b70200003f001fd5c
:10580c00200003f03bfe2880002003b0f0bd0020f8
:10581c0003f06cfc0700407802f05cfe002803d01b
:10582c000100200003f0edfcb6000c4bf1582000f9
:10583c0003f0e7fc200003f021fe3b78022b05d09f
:10584c00fb780004000c20184370d1e7bb78f8e714
:10585c00e220dae7e220d8e7944d0000643500201e
:020000040000fa
:10586c0051000000d497000028000000449500006f
:10587c00240000008c9600001c00000050950000d5
:10588c0043000000bc96000015000000cc96000000
:10589c0040000000d496000030000000e4960000a8
:1058ac0056000000d897000017000000ec9600008e
:1058bc0008000000dc97000016000000f4960000c1
:1058cc0046000000b09500001b000000049700008b
